:020000040800F2
:1000000000500020ED2000081D1F0008231F0008DD
:10001000291F00082F1F0008351F000800000000DE
:100020000000000000000000000000003B1F00086E
:10003000471F000800000000531F00085F1F000852
:100040003521000835210008352100083521000838
:100050003521000835210008352100086B1F0008F4
:100060003521000835210008791F000835210008D6
:100070003521000835210008352100083521000808
:1000800035210008352100083521000835210008F8
:10009000352100083521000835210008871F000898
:1000A00035210008352100083521000835210008D8
:1000B0009D1F0008B11F00083521000835210008E8
:1000C00035210008352100083521000835210008B8
:1000D00035210008C51F000835210008352100081A
:1000E00035210008352100083521000800000000F6
:1000F0000000000000000000000000000000000000
:0C01000000000000000000005FF808F1A3
:10010C0010B5054C237833B9044B13B10448AFF345
:10011C0000800123237010BD3C0100200000000072
:10012C00B859000808B5034B1BB103490348AFF39A
:10013C00008008BD0000000040010020B8590008F4
:10014C0080B584B000AFF860B9607A607B689AB211
:10015C004FF0FF33B968044804F04AF97B6818463D
:10016C001037BD4680BD00BFE801002080B582B0CD
:10017C0000AF78607B681B68B3F1804F40F08380E0
:10018C007A4B1B68012B7ED1794B1B68002B52D00C
:10019C00784B1B68002B03D1774B1B68013301E0B4
:1001AC00754B1B68744A1360744B1B68002B03D18E
:1001BC00734B1B68013301E0714B1B68704A136071
:1001CC00704B1A6870491346DB009B1A9B000B445A
:1001DC001B68694A126893420FD8664B1B68002B48
:1001EC000BD10021694803F037FA694B1B680133C6
:1001FC00674A13605F4B01221A60624B1A686249AE
:10020C001346DB009B1A9B000B4410331B685C4AA3
:10021C00126893420FD8594B1B68002B0BD1082145
:10022C005A4803F019FA554B01221A60584B1B68B7
:10023C000133574A1360574B1B68002B23D0564B86
:10024C001B68002B03D1554B1B68013301E0534B4A
:10025C001B68524A1360514B1B68B3F5486F12DB95
:10026C004D4B1B68002B0ED10421484803F0F4F9C8
:10027C00494B01221A60464B1B680133444A1360F8
:10028C00474804F0F3FF7B681B68464A934231D120
:10029C00364B1B68012B2DD1354B1B68002B29D0FD
:1002AC00414B1B68002B03D1404B1B68013301E011
:1002BC003E4B1B683D4A1360324B1A683249134659
:1002CC00DB009B1A9B000B4408331B68374A1268EF
:1002DC0093420FD8344B1B68002B0BD100213448B0
:1002EC0003F0BAF9304B01221A60294B1B68013319
:1002FC00274A1360264B1B68032B03D11B4B1B682F
:10030C00012B07D0224B1B68012B2AD1214B1B68D8
:10031C00012B26D1164B1B68002B05D0144B002249
:10032C001A60244804F0A2FF134B00221A601F4BE2
:10033C0000221A60124B00221A60184B00221A601D
:10034C00134B00221A60134B00221A600D4B1B68D2
:10035C0001330C4A1360054B00221A60164B012224
:10036C001A7000BF0837BD4680BD00BF3C0200209C
:10037C00640200205002002040020020580200209D
:10038C00480200206C020020A4020020580100202A
:10039C008402002068020020600200205C02002021
:1003AC00D0590008000400405402002044020020F0
:1003BC00A0010020E4590008B20D002080B500AF68
:1003CC001A221949194804F096F8194B00221A60A0
:1003DC00184B00221A60184B00221A60174B184A4F
:1003EC001A60184B164A1A60174B154A1A60174BAD
:1003FC0000221A60164B00221A60164B00221A605B
:10040C00154B00221A60154B1B68002B09D0144B9E
:10041C001B680133124A1360114B1B681A46114BAF
:10042C001A6000BF80BD00BF980D0020E8010020BD
:10043C008C02002090020020940200200400002076
:10044C00A0860100080000200C0000204C020020B7
:10045C0080020020780200207C0200207402002020
:10046C006C0200208802002080B500AF1A22B2492D
:10047C00B24804F0E3FF0346002B2BD1B04B1A68B3
:10048C00B0491346DB009B1A9B000B4403F1180286
:10049C001378012161F385031370A94B1A68A949DC
:1004AC001346DB009B1A9B000B4403F118021378D4
:1004BC00022161F301031370A14B1A68A149134681
:1004CC00DB009B1A9B000B4418331B78C3F301030E
:1004DC00DBB22EE11A229C49984804F0AFFF034688
:1004EC00002B54D10021994803F0B6F8002198480C
:1004FC0003F0B2F80821954803F0AEF8954B0022B2
:10050C001A60954B00221A60944B00221A60944B8F
:10051C0000221A60934B00221A60934B00221A603F
:10052C00924B00221A60924B00221A60914B0122CE
:10053C001A70914B1B6801338F4A1360804B1A68F9
:10054C0080491346DB009B1A9B000B4403F11802F5
:10055C001378012161F385031370794B1A6879497B
:10056C001346DB009B1A9B000B4403F11802137813
:10057C00022161F30103137001224FF480417F4883
:10058C0002F09EF97E4804F071FE0023D1E01A229D
:10059C007C496A4804F052FF0346002B2BD1684B70
:1005AC001A6868491346DB009B1A9B000B4403F145
:1005BC0018021378022161F385031370604B1A68DB
:1005CC0060491346DB009B1A9B000B4403F1180295
:1005DC001378022161F301031370594B1A685949BE
:1005EC001346DB009B1A9B000B4418331B78C3F398
:1005FC000103DBB29DE01A226349504804F01EFF50
:10060C000346002B0AD101224FF480415B4802F0D3
:10061C0057F95E4804F02AFE00238AE01A225C494E
:10062C00464804F00BFF0346002B0AD100224FF47E
:10063C008041524802F044F9564804F017FE00235A
:10064C0077E01A2254493D4804F0F8FE0346002B8B
:10065C002BD13B4B1A683B491346DB009B1A9B0082
:10066C000B4403F118021378072161F3850313700F
:10067C00334B1A6833491346DB009B1A9B000B441F
:10068C0003F118021378022161F3010313702C4B50
:10069C001A682C491346DB009B1A9B000B44183339
:1006AC001B78C3F30103DBB243E01A223B49234816
:1006BC0004F0C4FE0346002B2BD1214B1A682149B0
:1006CC001346DB009B1A9B000B4403F118021378B2
:1006DC00062161F385031370194B1A6819491346E7
:1006EC00DB009B1A9B000B4403F1180213780221C8
:1006FC0061F301031370124B1A6812491346DB00A5
:10070C009B1A9B000B4418331B78C3F30103DBB219
:10071C000FE00B4B1A680B491346DB009B1A9B002E
:10072C000B4403F1180213780A2161F3850313704B
:10073C000A23184680BD00BF10000020980D002031
:10074C0088020020A402002048000020580100204C
:10075C00A00100206402002040020020440200207E
:10076C00480200205C020020840200206802002065
:10077C003C020020B20D00206C020020000C014055
:10078C00F05900082C00002064000020FC590008DF
:10079C0080000020145A0008B80000209C000020A3
:1007AC0080B483B000AF934B1A6893491346DB00B7
:1007BC009B1A9B000B4403F118021378012161F37F
:1007CC000103137000237B6034E18C4A7B68134473
:1007DC001B78602B06D9894A7B6813441B787A2BCB
:1007EC0040F22481854A7B6813441B78402B06D940
:1007FC00824A7B6813441B785A2B40F217817F4A3C
:10080C007B6813441B783D2B00F010817B4A7B687E
:10081C0013441B782C2B05D1794B1B680133784A78
:10082C00136004E1764B1B68022B00F09880022BBE
:10083C0000F3FD80002B02D0012B46D0F7E06F4A6D
:10084C007B6813441B782D2B17D16A4B1A686A49A5
:10085C001346DB009B1A9B00CA18137943F0010363
:10086C001371684B01221A60674B1B68674AA2FB25
:10087C000323DB08644A1360D9E0624B1B68002B2E
:10088C000BD15C4B1A685C491346DB009B1A9B002E
:10089C00CA1813796FF300031371584A7B68134419
:1008AC001B78303B1A46584B1B6803FB02F2584B23
:1008BC001B681344564A1360534B1B68534AA2FBE4
:1008CC000323DB08504A1360B1E04C4A7B681344A5
:1008DC001B782D2B19D1474B1A6847491346DB005F
:1008EC009B1A9B000B4403F10802137943F001039C
:1008FC001371484B01221A60474B1B68434AA2FBF9
:10090C000323DB08444A136091E0424B1B68002B25
:10091C000DD1384B1A6838491346DB009B1A9B00E3
:10092C000B4403F1080213796FF300031371334A7C
:10093C007B6813441B78303B1A46374B1B6803FB10
:10094C0002F2364B1B681344344A1360324B1B685B
:10095C002E4AA2FB0323DB082F4A136067E0274AC9
:10096C007B6813441B782D2B19D1224B1A68224912
:10097C001346DB009B1A9B000B4403F11002137906
:10098C0043F001031371264B1B68204AA2FB03237F
:10099C00DB08234A1360234B01221A6047E0214BEA
:1009AC001B68002B0DD1134B1A6813491346DB003F
:1009BC009B1A9B000B4403F1100213796FF3000395
:1009CC0013710E4A7B6813441B78303B1A46144B48
:1009DC001B6803FB02F2144B1B681344124A13608E
:1009EC000F4B1B68094AA2FB0323DB080C4A13605C
:1009FC001DE000BF88020020A4020020980D0020FA
:100A0C004C0200207802002004000020CDCCCCCC7D
:100A1C008C0200207C0200200800002090020020A4
:100A2C000C000020800200209402002000BF7B6894
:100A3C0001337B607B68192B7FF7C7AE3F4B1B687C
:100A4C00A3F5C333A03B83EAE371A1EBE3713C4B09
:100A5C001A6808463B491346DB009B1A9B000B4463
:100A6C001860394B1B68A3F5C333A03B83EAE371D1
:100A7C00A1EBE371324B1A68084632491346DB008E
:100A8C009B1A9B000B4408331860304B1B68A3F572
:100A9C00C333A03B83EAE371A1EBE371284B1A68E3
:100AAC00084628491346DB009B1A9B000B44103365
:100ABC001860224B1B68224A126825498B4294BF4E
:100ACC0001230023D9B21F481346DB009B1A9B005D
:100ADC00C218137961F3000313711B4B1B68184A7E
:100AEC0012681B498B4294BF01230023D9B21548CD
:100AFC001346DB009B1A9B00034403F10802137995
:100B0C0061F300031371114B1B680D4A12681049F5
:100B1C008B4294BF01230023D9B20A481346DB0051
:100B2C009B1A9B00034403F11002137961F3000339
:100B3C00137100BF0C37BD4680BC70478C0200207F
:100B4C0088020020A40200209002002094020020C1
:100B5C009F86010080B582B000AF78607B681B680F
:100B6C00124A93421FD1FFF729FCFFF77DFC034685
:100B7C00022B08D10E4B1B6801330D4A13600D4B31
:100B8C0001221A700FE0FFF76FFC03460A2B0AD103
:100B9C00FFF706FE064B1B680133054A1360054B35
:100BAC0001221A7000BF0837BD4680BD00380140D5
:100BBC0088020020950D002080B582B000AF03465E
:100BCC00FB80FB88B3F5007F39D0B3F5007F6BDC7D
:100BDC00802B06D0802B67DC022B19D0102B47D032
:100BEC0062E0C82001F004FB0021324802F034FD21
:100BFC00314B01221A60314B80225A612F4B8022DB
:100C0C005A612F4804F032FBC82001F0F1FA4CE095
:100C1C00C82001F0EDFA00212A4802F01DFD2A4BF4
:100C2C0001221A60254B02225A61244B02225A617E
:100C3C00264804F01BFBC82001F0DAFA35E0C82086
:100C4C0001F0D6FA08211B4802F006FD204B0122C8
:100C5C001A601A4B4FF400725A61184B4FF4007221
:100C6C005A61C82001F0C4FA1A4804F0FFFA1CE0DB
:100C7C00C82001F0BDFA00210E4802F0EDFC002165
:100C8C00104802F0E9FC08210A4802F0E5FC0B4B85
:100C9C0010225A61094B10225A61C82001F0A8FA9F
:100CAC000D4804F0E3FA00E000BF00BF0837BD4672
:100CBC0080BD00BF5801002030020020000401401C
:100CCC002C5A0008A001002034020020385A0008D9
:100CDC0038020020445A0008505A000880B400AF73
:100CEC00134B00221A60134B00221A60124B002285
:100CFC001A60124B00221A60114B00221A60114B21
:100D0C0000221A60104B00221A60104B00221A604D
:100D1C000F4B00221A600F4B0F4A1A600F4B0E4AF2
:100D2C001A600F4B0C4A1A6000BFBD4680BC70475E
:100D3C003402002030020020380200204002002043
:100D4C0044020020480200205002002054020020DF
:100D5C005802002098020020A08601009C0200206E
:100D6C00A002002080B500AF1A4B1B68012B2ED1BE
:100D7C00194B1B68012B2AD1184B1B68012B26D150
:100D8C00174804F073FA174B1A6817491346DB001F
:100D9C009B1A9B000B4418331B78C3F38303DBB201
:100DAC00012B03D0114B1B68002B08D1104B0122D7
:100DBC001A700E4B01221A600E4B04221A70FFF7A8
:100DCC008DFF00224FF480410B4801F079FD00BFEC
:100DDC0080BD00BF34020020300200203802002009
:100DEC00605A00086C020020A402002000000020C1
:100DFC00B20D0020D2000020000C014080B500AFE5
:100E0C005C4B1A685C491346DB009B1A9B000B4435
:100E1C0018331B78C3F38303DBB2013B082B00F2BE
:100E2C00A58001A252F823F0590E0008A70E000865
:100E3C00790F0008790F0008790F0008ED0E0008F3
:100E4C000F0F0008310F0008550F0008012240F267
:100E5C0021414A4801F034FD0021494802F00CFBC5
:100E6C000021484802F008FB0821454802F004FB29
:100E7C00454B01221A60454B01221A60444B01225A
:100E8C001A603C4B1B6801333A4A1360414804F02A
:100E9C00EDF9414B00221A7069E000224FF48041B9
:100EAC00364801F00DFD0021354802F0D5FB00213C
:100EBC00344802F0D1FB0821314802F0CDFB04216B
:100ECC002F4802F0D9FA354B01221A60324B00221E
:100EDC001A70334B00221A60324804F0C7F946E00E
:100EEC0000224021304801F0EBFC304804F0BEF900
:100EFC00204B1B6801331F4A1360274B01221A70C9
:100F0C0035E001224021284801F0DAFC284804F0A1
:100F1C00ADF9184B1B680133164A13601E4B0122A6
:100F2C001A7024E000224FF40051144801F0C8FC60
:100F3C00204804F09BF9184B01221A700D4B1B68CA
:100F4C0001330C4A136012E001224FF400510B489C
:100F5C0001F0B6FC184804F089F90F4B01221A7005
:100F6C00044B1B680133034A136000E000BF00BF51
:100F7C0080BD00BF6C020020A4020020000C0140C8
:100F8C0058010020A0010020500200205402002033
:100F9C00580200206C5A0008B20D00206802002094
:100FAC0060020020785A0008000801408C5A0008A2
:100FBC00A85A0008C05A0008D85A000880B500AFDB
:100FCC00594804F053F9594B01221A60584B1A68CE
:100FDC0058491346DB009B1A9B000B441B79C3F347
:100FEC000003DBB21A460121534801F069FC504B57
:100FFC001A6850491346DB009B1A9B000B440833BC
:10100C001B79C3F30003DBB21A4620214A4801F0D6
:10101C0057FC474B1A6847491346DB009B1A9B0049
:10102C000B4410331B79C3F30003DBB21A464FF4A5
:10103C008061414801F044FC3D4B1A683D49134620
:10104C00DB009B1A9B000B441B68002B07D0002174
:10105C003A4802F011FA3A4B00221A6007E0384B7A
:10106C0001221A60374B1B680133364A1360304B30
:10107C001A6830491346DB009B1A9B000B4408335B
:10108C001B68002B07D000212F4802F0F5F92F4BDD
:10109C0000221A6007E02D4B01221A60294B1B68B5
:1010AC000133284A1360224B1A6822491346DB008D
:1010BC009B1A9B000B4410331B68002B07D0082194
:1010CC001E4802F0D9F9224B00221A6007E0204B8F
:1010DC0001221A601B4B1B6801331A4A13601D4B0B
:1010EC0000221A70174B1B68032B0DD10F4B0022DB
:1010FC001A60144B00221A600D4B1B6801330C4A0A
:10110C001360144B01221A70134B1B78032B09D05C
:10111C00124B1B78002B05D00F4B03221A70104B6F
:10112C0000221A7000BF80BDF05A00086402002033
:10113C006C020020A4020020000C01405801002089
:10114C005002002084020020A00100205402002044
:10115C0058020020B20D0020D2000020950D002076
:10116C00940D002080B500AF344B1A6834491346F7
:10117C00DB009B1A9B000B4418331B78C3F3010351
:10118C00DBB2002B57D02D4B1A682D491346DB00D0
:10119C009B1A9B000B4418331B78C3F30103DBB27F
:1011AC00022B02D1FFF72AFE10E0244B1A682449C7
:1011BC001346DB009B1A9B000B4418331B78C3F3BC
:1011CC000103DBB2012B01D1FFF7F8FE1B4B1A68B0
:1011DC001B491346DB009B1A9B000B4418331B78EE
:1011EC00C3F30103DBB2012B1DD0144B1A68144955
:1011FC001346DB009B1A9B000B4418331B78C3F37C
:10120C000103DBB2022B17D10C4B1A680C491346A5
:10121C00DB009B1A9B000B4418331B78C3F383032E
:10122C00DBB2022B08D1074B1B78002B04D1064BE9
:10123C0001221A6000E000BF80BD00BF6C020020DC
:10124C00A4020020B20D00203C02002080B400AFAC
:10125C00CD4B00221A70CD4B1A68CD491346DB00DA
:10126C009B1A9B000B444FF4FA721A60C74B1A6816
:10127C00C7491346DB009B1A9B000B4408334FF401
:10128C00FA721A60C14B1A68C1491346DB009B1AEB
:10129C009B000B4410334FF4FA721A60BB4B1A6864
:1012AC00BB491346DB009B1A9B00CA18137943F009
:1012BC0001031371B54B1A68B5491346DB009B1A31
:1012CC009B000B4403F10802137943F001031371E3
:1012DC00AE4B1A68AE491346DB009B1A9B000B44BD
:1012EC0003F11002137943F001031371A74B1A6831
:1012FC00A7491346DB009B1A9B000B4403F1180211
:10130C001378012161F301031370A04B1B685A1C65
:10131C009F491346DB009B1A9B000B4403F11802F8
:10132C001378072161F385031370984B1B685A1CC3
:10133C0097491346DB009B1A9B000B4403F11802E0
:10134C001378022161F301031370904B1B689A1CF4
:10135C008F491346DB009B1A9B000B4403F11802C8
:10136C001378082161F385031370884B1B689A1C52
:10137C0087491346DB009B1A9B000B4403F11802B0
:10138C001378022161F301031370804B1B68DA1C84
:10139C007F491346DB009B1A9B000B4403F1180298
:1013AC001378022161F385031370784B1B68DA1CE8
:1013BC0077491346DB009B1A9B000B4403F1180280
:1013CC001378022161F301031370704B1B681A1D13
:1013DC006F491346DB009B1A9B000B444FF4FA72C7
:1013EC001A606A4B1B681A1D69491346DB009B1A6D
:1013FC009B000B4408334FF4FA721A60634B1B6862
:10140C001A1D63491346DB009B1A9B000B441033D7
:10141C004FF4FA721A605D4B1B681A1D5C49134637
:10142C00DB009B1A9B00CA18137943F0010313715C
:10143C00564B1B681A1D56491346DB009B1A9B0022
:10144C000B4403F10802137943F0010313714F4B62
:10145C001B681A1D4E491346DB009B1A9B000B445C
:10146C0003F11002137943F001031371474B1B680E
:10147C001A1D47491346DB009B1A9B000B4403F1D2
:10148C0018021378012161F3010313703F4B1B68A1
:10149C005A1D3F491346DB009B1A9B000B4403F17A
:1014AC0018021378062161F385031370374B1B6800
:1014BC005A1D37491346DB009B1A9B000B4403F162
:1014CC0018021378022161F3010313702F4B1B6870
:1014DC009A1D2F491346DB009B1A9B000B4403F10A
:1014EC0018021378092161F385031370274B1B68CD
:1014FC009A1D27491346DB009B1A9B000B4403F1F2
:10150C0018021378022161F3010313701F4B1B683F
:10151C00DA1D1F491346DB009B1A9B000B444FF44A
:10152C00FA721A60194B1B68DA1D19491346DB0055
:10153C009B1A9B000B4408334FF4FA721A60134B3E
:10154C001B68DA1D12491346DB009B1A9B000B44E7
:10155C0010334FF4FA721A600C4B1B68DA1D0C49ED
:10156C001346DB009B1A9B00CA18137943F0010346
:10157C001371064B1B68DA1D05491346DB009B1AD9
:10158C009B000B4406E000BF950D00206C02002070
:10159C00A402002003F10802137943F00103137134
:1015AC005A4B1B68DA1D5A491346DB009B1A9B00E9
:1015BC000B4403F11002137943F001031371534BE5
:1015CC001B68DA1D52491346DB009B1A9B000B4427
:1015DC0003F118021378012161F3010313704B4BD3
:1015EC001B6803F108024A491346DB009B1A9B0057
:1015FC000B4403F118021378072161F38503137070
:10160C00424B1B6803F1080241491346DB009B1A4D
:10161C009B000B4403F118021378022161F30103C0
:10162C0013703A4B1B6803F1090239491346DB006E
:10163C009B1A9B000B444FF4FA721A60334B1B68D5
:10164C0003F1090232491346DB009B1A9B000B4441
:10165C0008334FF4FA721A602C4B1B6803F1090221
:10166C002B491346DB009B1A9B000B4410334FF4A1
:10167C00FA721A60254B1B6803F1090224491346C0
:10168C00DB009B1A9B00CA18137943F001031371FA
:10169C001E4B1B6803F109021D491346DB009B1A04
:1016AC009B000B4403F10802137943F001031371FF
:1016BC00164B1B6803F1090215491346DB009B1AF4
:1016CC009B000B4403F11002137943F001031371D7
:1016DC000E4B1B6803F109020D491346DB009B1AE4
:1016EC009B000B4403F118021378012161F30103F1
:1016FC001370064B1B680933064A1360064B012214
:10170C001A7000BFBD4680BC704700BF6C02002041
:10171C00A402002070020020940D002080B500AFC0
:10172C0000F004FD00F094F800F002FA00F0D6F896
:10173C0000F0D4F900F05CF9374B1B686FF0010234
:10174C001A61354801F04CFD344B1B686FF00102F7
:10175C001A61324801F044FD1A223149314802F035
:10176C00CAFE08212C4801F0E5FD00212A4801F0B1
:10177C00E1FD0021294801F0DDFD012240F221416B
:10178C00294801F09DF8294B1B68002B01D1FFF76C
:10179C00E9FA274B1B78032B10D0042B36D1254BA1
:1017AC001B78002B07D1244B1B68002B30D1234B0B
:1017BC001B68002B2CD1FFF7D5FC29E0204B1B78A4
:1017CC00002B05D11B4B1B78002B01D0FFF73EFDE6
:1017DC00184B1B78002B05D0194B1B78002B01D014
:1017EC00FFF7C0FC144B1A68164B1B689A4211D1B8
:1017FC00134B1B78002B0DD00D4B04221A70124882
:10180C0003F034FD114B01221A6003E000BFBAE76C
:10181C0000BFB8E700BFB6E758010020A0010020C8
:10182C00980D0020E8010020000C01400000002071
:10183C00D2000020B20D00206C0200203C020020DF
:10184C00940D002070020020FC5A00087402002045
:10185C0080B590B000AF07F118032822002118467C
:10186C0003F0E4FD3B1D00221A605A609A60DA60B6
:10187C001A610123BB614FF48033FB6100233B628F
:10188C000123BB6202237B634FF48033BB634FF4B1
:10189C00C013FB6307F11803184601F041F8034627
:1018AC00002B01D000F002FA0F237B600223BB60F7
:1018BC000023FB604FF4C0633B614FF4C0637B615A
:1018CC003B1D0221184601F0ADFA0346002B01D056
:1018DC0000F0ECF900BF4037BD4680BD80B58EB03E
:1018EC0000AF07F1280300221A605A609A60DA6090
:1018FC0007F1200300221A605A603B1D00221A6077
:10190C005A609A60DA601A615A619A61374B4FF0EB
:10191C0080421A60354B9F225A60344B00229A60E9
:10192C00324B7C22DA60314B00221A612F4B0022A1
:10193C009A612E4801F004FC0346002B01D000F004
:10194C00B5F94FF48053BB6207F1280319462748B9
:10195C0002F0FEF80346002B01D000F0A7F9234853
:10196C0001F090FC0346002B01D000F09FF90023FE
:10197C003B6200237B6207F1200319461B4802F0EF
:10198C0077FC0346002B01D000F090F960237B60BC
:10199C006423BB600023FB6000237B613B1D0022A2
:1019AC001946124802F012F80346002B01D000F041
:1019BC007DF93B1D042219460C4802F007F803463A
:1019CC00002B01D000F072F93B1D08221946074884
:1019DC0001F0FCFF0346002B01D000F067F903482F
:1019EC0000F0DCF900BF3837BD4680BD580100203F
:1019FC0080B58EB000AF07F1280300221A605A6040
:101A0C009A60DA6007F1200300221A605A603B1DCD
:101A1C0000221A605A609A60DA601A615A619A61FF
:101A2C002C4B2D4A1A602B4B9F225A60294B0022BB
:101A3C009A60284BC722DA60264B00221A61254B8C
:101A4C0000229A61234801F07BFB0346002B01D056
:101A5C0000F02CF94FF48053BB6207F128031946B0
:101A6C001C4802F075F80346002B01D000F01EF95B
:101A7C00184801F007FC0346002B01D000F016F9C2
:101A8C0000233B6200237B6207F1200319461148B7
:101A9C0002F0EEFB0346002B01D000F007F96023A7
:101AAC007B603223BB600023FB6000237B613B1D0A
:101ABC0000221946074801F089FF0346002B01D08C
:101ACC0000F0F4F8034800F069F900BF3837BD4660
:101ADC0080BD00BFA00100200004004080B500AF15
:101AEC00114B124A1A60104B4FF416525A600E4B9F
:101AFC0000229A600C4B0022DA600B4B00221A6118
:101B0C00094B0C225A61084B00229A61064B0022A9
:101B1C00DA61054802F01CFC0346002B01D000F0F2
:101B2C00C5F800BF80BD00BFE801002000380140AF
:101B3C0080B588B000AF07F1100300221A605A601C
:101B4C009A60DA60544B9B69534A43F020039361CB
:101B5C00514B9B6903F02003FB60FB684E4B9B6968
:101B6C004D4A43F0040393614B4B9B6903F0040310
:101B7C00BB60BB68484B9B69474A43F008039361C1
:101B8C00454B9B6903F008037B607B680022202196
:101B9C00424800F095FE01224021404800F090FEA2
:101BAC00002240F201413E4800F08AFE01224FF42F
:101BBC00C0413B4800F084FE10233B61394B7B61F4
:101BCC000123BB6107F110031946344800F0F4FC03
:101BDC0020233B6101237B610223BB610223FB6158
:101BEC0007F1100319462D4800F0E6FC40233B6139
:101BFC0001237B610023BB610223FB6107F110030E
:101C0C001946264800F0D8FC40F201433B61012301
:101C1C007B610223BB610223FB6107F110031946B0
:101C2C001F4800F0C9FC40F282233B611E4B7B61D4
:101C3C000123BB6107F110031946194800F0BCFCE5
:101C4C004FF4C0433B6101237B610023BB61022342
:101C5C00FB6107F110031946114800F0ADFC00229E
:101C6C000021072000F0BFFB072000F0D8FB00226A
:101C7C0001210A2000F0B7FB0A2000F0D0FB002263
:101C8C000121172000F0AFFB172000F0C8FB00BFAC
:101C9C002037BD4680BD00BF001002400008014047
:101CAC00000C0140000011100000211080B400AFA6
:101CBC0072B600BFFEE7000080B485B000AF154BD4
:101CCC009B69144A43F001039361124B9B6903F027
:101CDC000103BB60BB680F4BDB690E4A43F08053BA
:101CEC00D3610C4BDB6903F080537B607B680A4B40
:101CFC005B68FB60FB6823F0E063FB60FB6843F010
:101D0C000073FB60044AFB68536000BF1437BD4688
:101D1C0080BC7047001002400000014080B584B0C8
:101D2C0000AF78607B681B68B3F1804F14D1194BFE
:101D3C00DB69184A43F00103D361164BDB6903F0EE
:101D4C000103FB60FB68002200211C2000F04BFB10
:101D5C001C2000F064FB18E07B681B680E4A934261
:101D6C0013D10C4BDB690B4A43F00203D361094BD3
:101D7C00DB6903F00203BB60BB68002200211D205D
:101D8C0000F031FB1D2000F04AFB00BF1037BD46B0
:101D9C0080BD00BF001002400004004080B58AB036
:101DAC0000AF786007F1140300221A605A609A6041
:101DBC00DA607B681B68B3F1804F18D1254B9B69A7
:101DCC00244A43F004039361224B9B6903F0040300
:101DDC003B613B6907237B610223BB6102233B62AE
:101DEC0007F1140319461C4800F0E6FB2EE07B6853
:101DFC001B681A4A934229D1164B9B69154A43F02A
:101E0C0008039361134B9B6903F00803FB60FB68A9
:101E1C0010237B610223BB6102233B6207F1140395
:101E2C0019460F4800F0C8FB0E4B5B687B627B6A5F
:101E3C0023F440637B627B6A43F0E0637B627B6AE2
:101E4C0043F400637B62074A7B6A536000BF283708
:101E5C00BD4680BD00100240000801400004004057
:101E6C00000C01400000014080B588B000AF7860E4
:101E7C0007F1100300221A605A609A60DA607B68DE
:101E8C001B68204A934239D11F4B9B691E4A43F46D
:101E9C00804393611C4B9B6903F48043FB60FB689C
:101EAC00194B9B69184A43F004039361164B9B69C9
:101EBC0003F00403BB60BB684FF400733B61022367
:101ECC007B610323FB6107F1100319460F4800F0F7
:101EDC0073FB4FF480633B6100237B610023BB6188
:101EEC0007F110031946094800F066FB0022002197
:101EFC00252000F078FA252000F091FA00BF203759
:101F0C00BD4680BD00380140001002400008014071
:101F1C0080B400AFFEE780B400AFFEE780B400AF42
:101F2C00FEE780B400AFFEE780B400AFFEE780B4FC
:101F3C0000AF00BFBD4680BC704780B400AF00BF8F
:101F4C00BD4680BC704780B400AF00BFBD4680BCAE
:101F5C00704780B500AF00F02FF900BF80BD80B591
:101F6C0000AF022000F0C4FC00BF80BD80B500AF04
:101F7C00102000F0BDFC00BF80BD80B500AF8020FC
:101F8C0000F0B6FC4FF4007000F0B2FC00BF80BD56
:101F9C0080B500AF024801F011FC00BF80BD00BF4E
:101FAC005801002080B500AF024801F007FC00BFCB
:101FBC0080BD00BFA001002080B500AF024802F038
:101FCC00BFFA00BF80BD00BFE801002080B586B01D
:101FDC0000AFF860B9607A6000237B610AE0AFF370
:101FEC0000800146BB685A1CBA60CAB21A707B6981
:101FFC0001337B617A697B689A42F0DB7B68184617
:10200C001837BD4680BD80B483B000AF78604FF008
:10201C00FF3318460C37BD4680BC704780B483B084
:10202C0000AF786039603B684FF400525A6000236F
:10203C0018460C37BD4680BC704780B483B000AFE7
:10204C007860012318460C37BD4680BC704780B4BD
:10205C0085B000AFF860B9607A6000231846143779
:10206C00BD4680BC7047000080B586B000AF78607C
:10207C00144A154BD31A7B617B693B61134B1B686C
:10208C00002B02D1114B124A1A60104B1A687B6854
:10209C0013443A699A4207D203F028FA03460C22F9
:1020AC001A604FF0FF3309E0084B1B68FB60074BCD
:1020BC001A687B681344054A1360FB681846183786
:1020CC00BD4680BD0050002000040000B40D00206F
:1020DC00080F002080B400AF00BFBD4680BC704725
:1020EC00FFF7F8FF0B480C490C4A002302E0D458C8
:1020FC00C4500433C4188C42F9D3094A094C002348
:10210C0001E013600432A242FBD303F0F5F9FFF7B0
:10211C0005FB7047000000203C010020585B0008C4
:10212C003C010020080F0020FEE7000080B500AF46
:10213C00084B1B68074A43F010031360032000F0A0
:10214C0047F9002000F008F8FFF7B6FD0023184609
:10215C0080BD00BF0020024080B582B000AF786027
:10216C00124B1A68124B1B7819464FF47A73B3FB57
:10217C00F1F3B2FBF3F3184600F05FF90346002BC2
:10218C0001D001230EE07B680F2B0AD8002279685E
:10219C004FF0FF3000F027F9064A7B6813600023EC
:1021AC0000E0012318460837BD4680BDD40000204E
:1021BC00DC000020D800002080B400AF054B1B7859
:1021CC001A46054B1B681344034A136000BFBD46F7
:1021DC0080BC7047DC000020B80D002080B400AF3C
:1021EC00024B1B681846BD4680BC7047B80D0020DA
:1021FC0080B584B000AF7860FFF7F0FFB8607B6803
:10220C00FB60FB68B3F1FF3F05D00A4B1B781A4605
:10221C00FB681344FB6000BFFFF7E0FF0246BB689E
:10222C00D31AFA689A42F7D800BF00BF1037BD46E0
:10223C0080BD00BFDC00002080B485B000AF7860AA
:10224C007B6803F00703FB600C4BDB68BB60BA6870
:10225C004FF6FF031340BB60FB681A02BB681343C5
:10226C0043F0BF6343F40033BB60044ABB68D360E4
:10227C0000BF1437BD4680BC704700BF00ED00E0C6
:10228C0080B400AF044BDB681B0A03F0070318464D
:10229C00BD4680BC704700BF00ED00E080B483B049
:1022AC0000AF0346FB7197F90730002B0BDBFB7972
:1022BC0003F01F02064997F907305B09012000FA69
:1022CC0002F241F8232000BF0C37BD4680BC70479A
:1022DC0000E100E080B483B000AF03463960FB71CD
:1022EC0097F90730002B0ADB3B68DAB20C4997F9F7
:1022FC0007301201D2B20B4483F800230AE03B688A
:10230C00DAB20849FB7903F00F03043B1201D2B295
:10231C000B441A7600BF0C37BD4680BC704700BF1B
:10232C0000E100E000ED00E080B489B000AFF8609F
:10233C00B9607A60FB6803F00703FB61FB69C3F1CA
:10234C000703042B28BF0423BB61FB690433062B52
:10235C0002D9FB69033B00E000237B614FF0FF32A5
:10236C00BB6902FA03F3DA43BB681A407B699A40F3
:10237C004FF0FF317B6901FA03F3D9437B680B40C3
:10238C00134318462437BD4680BC704780B582B0D5
:10239C0000AF78607B68013BB3F1807F01D30123F0
:1023AC000FE00A4A7B68013B53600F214FF0FF306E
:1023BC00FFF790FF054B00229A60044B07221A602E
:1023CC00002318460837BD4680BD00BF10E000E072
:1023DC0080B582B000AF78607868FFF72DFF00BF42
:1023EC000837BD4680BD80B586B000AF0346B960E6
:1023FC007A60FB7300237B61FFF742FF78617A6898
:10240C00B9687869FFF790FF024697F90F301146CB
:10241C001846FFF75FFF00BF1837BD4680BD80B57B
:10242C0082B000AF0346FB7197F907301846FFF7EF
:10243C0035FF00BF0837BD4680BD80B582B000AF08
:10244C0078607868FFF7A2FF034618460837BD4648
:10245C0080BD80B485B000AF78600023FB737B68CF
:10246C0093F82130DBB2022B08D07B6804229A63EC
:10247C007B68002283F82020012320E07B681B6806
:10248C001A687B681B6822F00E021A607B681B6856
:10249C001A687B681B6822F001021A607B681A6C50
:1024AC007B68DB6B012101FA02F25A607B68012226
:1024BC0083F821207B68002283F82020FB7B1846C0
:1024CC001437BD4680BC704780B584B000AF7860CF
:1024DC000023FB737B6893F82130DBB2022B05D011
:1024EC007B6804229A630123FB7351E07B681B68B1
:1024FC001A687B681B6822F00E021A607B681B68E6
:10250C001A687B681B6822F001021A607B681B68E2
:10251C00224A934229D07B681B68214A934222D0DD
:10252C007B681B681F4A93421AD07B681B681E4A43
:10253C00934212D07B681B681C4A93420AD07B687A
:10254C001B681B4A934202D14FF480130EE04FF0EC
:10255C0080730BE04FF4803308E04FF4805305E0B8
:10256C004FF4807302E0102300E00123114A536002
:10257C007B68012283F821207B68002283F82020CD
:10258C007B685B6B002B03D07B685B6B7868984730
:10259C00FB7B18461037BD4680BD00BF08000240CB
:1025AC001C0002403000024044000240580002402F
:1025BC006C0002400000024080B48BB000AF786029
:1025CC00396000237B6200233B6269E101227B6A54
:1025DC0002FA03F3FB613B681B68FA691340BB61A9
:1025EC00BA69FB699A4240F058813B685B689A4A29
:1025FC0093425ED0984A934275D8984A934258D0E9
:10260C00964A93426FD8964A934252D0944A934238
:10261C0069D8944A93424CD0924A934263D8924AD6
:10262C00934246D0904A93425DD8122B2AD8122B53
:10263C0059D801A252F823F0BF26000899260008A9
:10264C00AB260008ED260008F3260008F326000848
:10265C00F3260008F3260008F3260008F3260008EA
:10266C00F3260008F3260008F3260008F3260008DA
:10267C00F3260008F3260008F3260008A12600081C
:10268C00B5260008794A934213D02CE03B68DB68EE
:10269C003B6229E03B68DB6804333B6224E03B6827
:1026AC00DB6808333B621FE03B68DB680C333B6242
:1026BC001AE03B689B68002B02D104233B6213E0B9
:1026CC003B689B68012B05D108233B627B68FA6948
:1026DC001A6109E008233B627B68FA695A6103E0DE
:1026EC0000233B6200E000BFBB69FF2B01D87B6875
:1026FC0001E07B6804337B61BB69FF2B02D87B6AEA
:10270C009B0002E07B6A083B9B003B617B691A687B
:10271C000F213B6901FA03F3DB431A40396A3B6929
:10272C0001FA03F31A437B691A603B685B6803F098
:10273C008053002B00F0B1804D4B9B694C4A43F009
:10274C00010393614A4B9B6903F00103BB60BB68B7
:10275C00484A7B6A9B08023352F82330FB607B6A41
:10276C0003F003039B000F2202FA03F3DB43FA6826
:10277C001340FB607B68404A934213D07B683F4A0E
:10278C0093420DD07B683E4A934207D07B683D4A0A
:10279C00934201D1032306E0042304E0022302E068
:1027AC00012300E000237A6A02F0030292009340B6
:1027BC00FA681343FB602F497B6A9B080233FA6863
:1027CC0041F823203B685B6803F48013002B06D090
:1027DC002D4B9A682C49BB6913438B6006E02A4B3E
:1027EC009A68BB69DB43284913408B603B685B6884
:1027FC0003F40013002B06D0234BDA682249BB6983
:10280C001343CB6006E0204BDA68BB69DB431E49FF
:10281C001340CB603B685B6803F40033002B06D09D
:10282C00194B5A681849BB6913434B6006E0164BA9
:10283C005A68BB69DB43144913404B603B685B68C7
:10284C0003F48033002B21D00F4B1A680E49BB695F
:10285C0013430B6021E000BF000032100000311068
:10286C0000002210000021100000121000001110B6
:10287C00001002400000014000080140000C014023
:10288C000010014000140140000401400B4B1A6879
:10289C00BB69DB43094913400B607B6A01337B62E4
:1028AC003B681A687B6A22FA03F3002B7FF48EAE26
:1028BC0000BF00BF2C37BD4680BC704700040140F0
:1028CC0080B483B000AF78600B467B8013467B707E
:1028DC007B78002B03D07A887B681A6103E07B88B5
:1028EC001A047B681A6100BF0C37BD4680BC704768
:1028FC0080B582B000AF0346FB80084B5A69FB8859
:10290C001340002B06D0054AFB885361FB88184600
:10291C00FEF752F900BF0837BD4680BD00040140E8
:10292C0080B586B000AF78607B68002B01D10123A5
:10293C0072E27B681B6803F00103002B00F08780B8
:10294C00924B5B6803F00C03042B0CD08F4B5B6831
:10295C0003F00C03082B12D18C4B5B6803F480330F
:10296C00B3F5803F0BD1894B1B6803F40033002B6C
:10297C006CD07B685B68002B68D101234CE27B68D0
:10298C005B68B3F5803F06D1804B1B687F4A43F4EC
:10299C00803313602EE07B685B68002B0CD17B4B83
:1029AC001B687A4A23F480331360784B1B68774A90
:1029BC0023F4802313601DE07B685B68B3F5A02FC4
:1029CC000CD1724B1B68714A43F4802313606F4B1C
:1029DC001B686E4A43F4803313600BE06B4B1B682F
:1029EC006A4A23F480331360684B1B68674A23F4EC
:1029FC00802313607B685B68002B13D0FFF7EEFB22
:102A0C00386108E0FFF7EAFB02463B69D31A642BF6
:102A1C0001D9032300E25D4B1B6803F40033002B48
:102A2C00F0D014E0FFF7DAFB386108E0FFF7D6FBD3
:102A3C0002463B69D31A642B01D90323ECE1534BB7
:102A4C001B6803F40033002BF0D100E000BF7B685F
:102A5C001B6803F00203002B63D04C4B5B6803F044
:102A6C000C03002B0BD0494B5B6803F00C03082BB9
:102A7C001CD1464B5B6803F48033002B16D1434BBF
:102A8C001B6803F00203002B05D07B681B69012B2C
:102A9C0001D00123C0E13D4B1B6823F0F8027B6899
:102AAC005B69DB00394913430B603AE07B681B69B7
:102ABC00002B20D0364B01221A60FFF78FFB3861B8
:102ACC0008E0FFF78BFB02463B69D31A022B01D9B6
:102ADC000323A1E12D4B1B6803F00203002BF0D064
:102AEC002A4B1B6823F0F8027B685B69DB002749E3
:102AFC0013430B6015E0264B00221A60FFF76EFBA8
:102B0C00386108E0FFF76AFB02463B69D31A022BD7
:102B1C0001D9032380E11D4B1B6803F00203002B3A
:102B2C00F0D17B681B6803F00803002B3AD07B685C
:102B3C009B69002B19D0174B01221A60FFF74EFB33
:102B4C00386108E0FFF74AFB02463B69D31A022BB7
:102B5C0001D9032360E10D4B5B6A03F00203002BE8
:102B6C00F0D0012000F0CEFA1CE00A4B00221A60D3
:102B7C00FFF734FB38610FE0FFF730FB02463B698F
:102B8C00D31A022B08D9032346E100BF00100240E0
:102B9C000000424280044242924B5B6A03F0020303
:102BAC00002BE9D17B681B6803F00403002B00F0B9
:102BBC00A6800023FB758B4BDB6903F08053002B45
:102BCC000DD1884BDB69874A43F08053D361854B29
:102BDC00DB6903F08053BB60BB680123FB75824B40
:102BEC001B6803F48073002B18D17F4B1B687E4A43
:102BFC0043F480731360FFF7F1FA386108E0FFF7D4
:102C0C00EDFA02463B69D31A642B01D9032303E185
:102C1C00754B1B6803F48073002BF0D07B68DB686A
:102C2C00012B06D16F4B1B6A6E4A43F001031362F2
:102C3C002DE07B68DB68002B0CD16A4B1B6A694A60
:102C4C0023F001031362674B1B6A664A23F00403EB
:102C5C0013621CE07B68DB68052B0CD1614B1B6A93
:102C6C00604A43F0040313625E4B1B6A5D4A43F0F7
:102C7C00010313620BE05B4B1B6A5A4A23F00103FE
:102C8C001362584B1B6A574A23F0040313627B6888
:102C9C00DB68002B15D0FFF7A1FA38610AE0FFF7CB
:102CAC009DFA02463B69D31A41F28832934201D90C
:102CBC000323B1E04B4B1B6A03F00203002BEED055
:102CCC0014E0FFF78BFA38610AE0FFF787FA024647
:102CDC003B69D31A41F28832934201D903239BE01A
:102CEC00404B1B6A03F00203002BEED1FB7D012B42
:102CFC0005D13C4BDB693B4A23F08053D3617B68A5
:102D0C00DB69002B00F08780364B5B6803F00C030B
:102D1C00082B61D07B68DB69022B46D1334B002238
:102D2C001A60FFF75BFA386108E0FFF757FA0246C2
:102D3C003B69D31A022B01D903236DE0294B1B6885
:102D4C0003F00073002BF0D17B681B6AB3F5803F56
:102D5C0008D1244B5B6823F400327B689B682149C3
:102D6C0013434B601F4B5B6823F474127B68196A26
:102D7C007B685B6A0B431B4913434B601B4B012263
:102D8C001A60FFF72BFA386108E0FFF727FA0246C2
:102D9C003B69D31A022B01D903233DE0114B1B686D
:102DAC0003F00073002BF0D035E0104B00221A60BA
:102DBC00FFF714FA386108E0FFF710FA02463B6996
:102DCC00D31A022B01D9032326E0064B1B6803F010
:102DDC000073002BF0D11EE07B68DB69012B07D15F
:102DEC00012319E0001002400070004060004242D4
:102DFC000B4B5B68FB60FB6803F480327B681B6ADF
:102E0C009A4206D1FB6803F470127B685B6A9A42A3
:102E1C0001D0012300E0002318461837BD4680BDC1
:102E2C000010024080B584B000AF786039607B68D8
:102E3C00002B01D10123D0E06A4B1B6803F0070380
:102E4C003A689A4210D9674B1B6823F00702654910
:102E5C003B6813430B60634B1B6803F007033A6832
:102E6C009A4201D00123B8E07B681B6803F002038F
:102E7C00002B20D07B681B6803F00403002B05D0CB
:102E8C00594B5B68584A43F4E06353607B681B689A
:102E9C0003F00803002B05D0534B5B68524A43F4F4
:102EAC0060535360504B5B6823F0F0027B689B6867
:102EBC004D4913434B607B681B6803F00103002BE7
:102ECC0040D07B685B68012B07D1474B1B6803F430
:102EDC000033002B15D101237FE07B685B68022B4C
:102EEC0007D1414B1B6803F00073002B09D1012360
:102EFC0073E03D4B1B6803F00203002B01D101234F
:102F0C006BE0394B5B6823F003027B685B683649E6
:102F1C0013434B60FFF762F9F8600AE0FFF75EF9C4
:102F2C000246FB68D31A41F28832934201D903233B
:102F3C0053E02D4B5B6803F00C027B685B689B00D5
:102F4C009A42EBD1274B1B6803F007033A689A426D
:102F5C0010D2244B1B6823F0070222493B68134311
:102F6C000B60204B1B6803F007033A689A4201D0B0
:102F7C00012332E07B681B6803F00403002B08D0AC
:102F8C00194B5B6823F4E0627B68DB6816491343DA
:102F9C004B607B681B6803F00803002B09D0124BB5
:102FAC005B6823F460527B681B69DB000E4913439A
:102FBC004B6000F021F802460B4B5B681B0903F0D9
:102FCC000F030A49CB5C22FA03F3094A1360094B3D
:102FDC001B681846FFF7C0F8002318461037BD468B
:102FEC0080BD00BF0020024000100240245B00089E
:102FFC00D4000020D800002080B487B000AF00239C
:10300C00FB600023BB6000237B6100237B600023FB
:10301C003B611E4B5B68FB60FB6803F00C03042BED
:10302C0002D0082B03D027E0194B3B6127E0FB684B
:10303C009B0C03F00F03174AD35C7B60FB6803F413
:10304C008033002B10D0114B5B685B0C03F0010339
:10305C00114AD35CBB607B680D4A03FB02F2BB6870
:10306C00B2FBF3F37B6104E07B680C4A02FB03F3D5
:10307C007B617B693B6102E0054B3B6100BF3B69B7
:10308C0018461C37BD4680BC704700BF001002407C
:10309C0000127A003C5B00084C5B000800093D0004
:1030AC0080B400AF024B1B681846BD4680BC70470D
:1030BC00D400002080B500AFFFF7F2FF0246054BAD
:1030CC005B681B0A03F007030349CB5C22FA03F38A
:1030DC00184680BD00100240345B000880B500AF7C
:1030EC00FFF7DEFF0246054B5B68DB0A03F00703C4
:1030FC000349CB5C22FA03F3184680BD0010024052
:10310C00345B000880B485B000AF78600A4B1B6854
:10311C000A4AA2FB03235B0A7A6802FB03F3FB60F7
:10312C0000BFFB685A1EFA60002BF9D100BF00BF2C
:10313C001437BD4680BC7047D4000020D34D6210BC
:10314C0080B582B000AF78607B68002B01D1012381
:10315C0041E07B6893F83D30DBB2002B06D17B68F5
:10316C00002283F83C207868FEF7D8FD7B680222A9
:10317C0083F83D207B681A687B6804331946104637
:10318C0000F0D2FD7B68012283F846207B68012287
:10319C0083F83E207B68012283F83F207B68012264
:1031AC0083F840207B68012283F841207B68012250
:1031BC0083F842207B68012283F843207B6801223C
:1031CC0083F844207B68012283F845207B68012228
:1031DC0083F83D20002318460837BD4680BD00000B
:1031EC0080B485B000AF78607B6893F83D30DBB27B
:1031FC00012B01D001233AE07B68022283F83D20A9
:10320C007B681B68DA687B681B6842F00102DA6035
:10321C007B681B68184A93420ED07B681B68B3F11D
:10322C00804F09D07B681B68144A934204D07B689A
:10323C001B68134A934211D17B681B689B6803F08F
:10324C000703FB60FB68062B10D07B681B681A68B1
:10325C007B681B6842F001021A6007E07B681B6800
:10326C001A687B681B6842F001021A60002318463A
:10327C001437BD4680BC7047002C01400004004050
:10328C000008004080B582B000AF78607B68002BEE
:10329C0001D1012341E07B6893F83D30DBB2002B78
:1032AC0006D17B68002283F83C20786800F039F85E
:1032BC007B68022283F83D207B681A687B680433A4
:1032CC001946104600F030FD7B68012283F8462039
:1032DC007B68012283F83E207B68012283F83F2023
:1032EC007B68012283F840207B68012283F841200F
:1032FC007B68012283F842207B68012283F84320FB
:10330C007B68012283F844207B68012283F84520E6
:10331C007B68012283F83D20002318460837BD4600
:10332C0080BD80B483B000AF786000BF0C37BD4661
:10333C0080BC704780B584B000AF786039603B6862
:10334C00002B09D17B6893F83E30DBB2012B14BF04
:10335C0001230023DBB222E03B68042B09D17B68FC
:10336C0093F83F30DBB2012B14BF01230023DBB2F7
:10337C0015E03B68082B09D17B6893F84030DBB231
:10338C00012B14BF01230023DBB208E07B6893F808
:10339C004130DBB2012B14BF01230023DBB2002B25
:1033AC0001D001235EE03B68002B04D17B68022234
:1033BC0083F83E2013E03B68042B04D17B68022287
:1033CC0083F83F200BE03B68082B04D17B6802227A
:1033DC0083F8402003E07B68022283F841207B685D
:1033EC001B6801223968184600F01EFF7B681B68B9
:1033FC001E4A934207D17B681B685A6C7B681B681A
:10340C0042F400425A647B681B68184A93420ED0FF
:10341C007B681B68B3F1804F09D07B681B68144A2A
:10342C00934204D07B681B68124A934211D17B688B
:10343C001B689B6803F00703FB60FB68062B10D02E
:10344C007B681B681A687B681B6842F001021A6073
:10345C0007E07B681B681A687B681B6842F00102F6
:10346C001A60002318461037BD4680BD002C014061
:10347C00000400400008004080B584B000AF7860C4
:10348C0039600023FB733B68002B09D17B6893F8F0
:10349C003E30DBB2012B14BF01230023DBB222E050
:1034AC003B68042B09D17B6893F83F30DBB2012BCE
:1034BC0014BF01230023DBB215E03B68082B09D1B4
:1034CC007B6893F84030DBB2012B14BF012300233F
:1034DC00DBB208E07B6893F84130DBB2012B14BF00
:1034EC0001230023DBB2002B01D00123A9E03B68B0
:1034FC00002B04D17B68022283F83E2013E03B684A
:10350C00042B04D17B68022283F83F200BE03B683C
:10351C00082B04D17B68022283F8402003E07B68EF
:10352C00022283F841203B680C2B41D801A252F8AF
:10353C0023F000BF75350008BD350008BD35000807
:10354C00BD35000887350008BD350008BD350008BD
:10355C00BD35000899350008BD350008BD3500089B
:10356C00BD350008AB3500087B681B68DA687B68E2
:10357C001B6842F00202DA601DE07B681B68DA68A7
:10358C007B681B6842F00402DA6014E07B681B68FD
:10359C00DA687B681B6842F00802DA600BE07B6833
:1035AC001B68DA687B681B6842F01002DA6002E084
:1035BC000123FB7300BFFB7B002B41D17B681B6895
:1035CC0001223968184600F02FFE7B681B681F4AE1
:1035DC00934207D17B681B685A6C7B681B6842F46A
:1035EC0000425A647B681B68184A93420ED07B6871
:1035FC001B68B3F1804F09D07B681B68144A934257
:10360C0004D07B681B68134A934211D17B681B68FA
:10361C009B6803F00703BB60BB68062B10D07B686C
:10362C001B681A687B681B6842F001021A6007E08D
:10363C007B681B681A687B681B6842F001021A6081
:10364C00FB7B18461037BD4680BD00BF002C0140E7
:10365C00000400400008004080B584B000AF7860E2
:10366C0039600023FB733B680C2B41D801A252F844
:10367C0023F000BFB5360008FD360008FD36000803
:10368C00FD360008C7360008FD360008FD36000878
:10369C00FD360008D9360008FD360008FD36000856
:1036AC00FD360008EB3600087B681B68DA687B681F
:1036BC001B6822F00202DA601DE07B681B68DA6886
:1036CC007B681B6822F00402DA6014E07B681B68DC
:1036DC00DA687B681B6822F00802DA600BE07B6812
:1036EC001B68DA687B681B6822F01002DA6002E063
:1036FC000123FB7300BFFB7B002B57D17B681B683E
:10370C0000223968184600F08FFD7B681B682A4A36
:10371C00934217D17B681B681A6A41F2111313404C
:10372C00002B0FD17B681B681A6A40F2444313408C
:10373C00002B07D17B681B685A6C7B681B6822F4D2
:10374C0000425A647B681B681A6A41F211131340D9
:10375C00002B0FD17B681B681A6A40F2444313405C
:10376C00002B07D17B681B681A687B681B6822F0EA
:10377C0001021A603B68002B04D17B68012283F89C
:10378C003E2013E03B68042B04D17B68012283F8B4
:10379C003F200BE03B68082B04D17B68012283F8A7
:1037AC00402003E07B68012283F84120FB7B184614
:1037BC001037BD4680BD00BF002C014080B582B0E3
:1037CC0000AF78607B681B681B6903F00203022B57
:1037DC0022D17B681B68DB6803F00203022B1BD130
:1037EC007B681B686FF002021A617B6801221A77F2
:1037FC007B681B689B6903F00303002B03D078687C
:10380C0000F076FA05E0786800F069FA786800F064
:10381C0078FA7B6800221A777B681B681B6903F0B7
:10382C000403042B22D17B681B68DB6803F00403C0
:10383C00042B1BD17B681B686FF004021A617B6838
:10384C0002221A777B681B689B6903F44073002B78
:10385C0003D0786800F04CFA05E0786800F03FFA85
:10386C00786800F04EFA7B6800221A777B681B6838
:10387C001B6903F00803082B22D17B681B68DB68EB
:10388C0003F00803082B1BD17B681B686FF0080240
:10389C001A617B6804221A777B681B68DB6903F06A
:1038AC000303002B03D0786800F022FA05E0786857
:1038BC0000F015FA786800F024FA7B6800221A7779
:1038CC007B681B681B6903F01003102B22D17B68EB
:1038DC001B68DB6803F01003102B1BD17B681B6883
:1038EC006FF010021A617B6808221A777B681B68DC
:1038FC00DB6903F44073002B03D0786800F0F8F90F
:10390C0005E0786800F0EBF9786800F0FAF97B686C
:10391C0000221A777B681B681B6903F00103012BDB
:10392C000ED17B681B68DB6803F00103012B07D108
:10393C007B681B686FF001021A617868FCF716FC53
:10394C007B681B681B6903F08003802B0ED17B689E
:10395C001B68DB6803F08003802B07D17B681B6836
:10396C006FF080021A61786800F0E9FC7B681B68D4
:10397C001B6903F04003402B0ED17B681B68DB688E
:10398C0003F04003402B07D17B681B686FF04002AB
:10399C001A61786800F0BEF97B681B681B6903F03C
:1039AC002003202B0ED17B681B68DB6803F02003FF
:1039BC00202B07D17B681B686FF020021A61786896
:1039CC0000F0B4FC00BF0837BD4680BD80B586B0A2
:1039DC0000AFF860B9607A600023FB75FB6893F860
:1039EC003C30012B01D10223AEE0FB68012283F8AD
:1039FC003C207B680C2B00F29F8001A252F823F034
:103A0C00413A0008453B0008453B0008453B00088F
:103A1C00813A0008453B0008453B0008453B00083F
:103A2C00C33A0008453B0008453B0008453B0008ED
:103A3C00033B0008FB681B68B968184600F0D6F910
:103A4C00FB681B689A69FB681B6842F008029A6164
:103A5C00FB681B689A69FB681B6822F004029A6178
:103A6C00FB681B689969BB681A69FB681B680A4389
:103A7C009A6164E0FB681B68B968184600F01CFA90
:103A8C00FB681B689A69FB681B6842F400629A61C8
:103A9C00FB681B689A69FB681B6822F480629A6158
:103AAC00FB681B689969BB681B691A02FB681B6879
:103ABC000A439A6143E0FB681B68B968184600F03A
:103ACC0065FAFB681B68DA69FB681B6842F0080240
:103ADC00DA61FB681B68DA69FB681B6822F0040278
:103AEC00DA61FB681B68D969BB681A69FB681B68DB
:103AFC000A43DA6123E0FB681B68B968184600F0DA
:103B0C00AFFAFB681B68DA69FB681B6842F4006259
:103B1C00DA61FB681B68DA69FB681B6822F4806257
:103B2C00DA61FB681B68D969BB681B691A02FB6800
:103B3C001B680A43DA6102E00123FB7500BFFB68D6
:103B4C00002283F83C20FB7D18461837BD4680BD0B
:103B5C0080B584B000AF786039600023FB737B685C
:103B6C0093F83C30012B01D10223B4E07B68012295
:103B7C0083F83C207B68022283F83D207B681B681D
:103B8C009B68BB60BB6823F07703BB60BB6823F406
:103B9C007F43BB607B681B68BA689A603B681B6894
:103BAC00B3F5005F3ED0B3F5005F00F28780B3F54C
:103BBC00805F00F08680B3F5805F7FD8702B1AD0C1
:103BCC00702B7BD8602B50D0602B77D8502B3CD0EF
:103BDC00502B73D8402B58D0402B6FD8302B64D03F
:103BEC00302B6BD8202B60D0202B67D8002B5CD0CF
:103BFC00102B5AD062E07B6818683B6899683B6868
:103C0C005A683B68DB6800F0F0FA7B681B689B68BD
:103C1C00BB60BB6843F07703BB607B681B68BA680A
:103C2C009A604FE07B6818683B6899683B685A68F3
:103C3C003B68DB6800F0D9FA7B681B689A687B6884
:103C4C001B6842F480429A603CE07B6818683B68D1
:103C5C0059683B68DB681A4600F050FA7B681B68B1
:103C6C005021184600F0A7FA2CE07B6818683B68D6
:103C7C0059683B68DB681A4600F06EFA7B681B6873
:103C8C006021184600F097FA1CE07B6818683B68C6
:103C9C0059683B68DB681A4600F030FA7B681B6891
:103CAC004021184600F087FA0CE07B681A683B68E4
:103CBC001B681946104600F07EFA03E00123FB73E3
:103CCC0000E000BF7B68012283F83D207B68002266
:103CDC0083F83C20FB7B18461037BD4680BD80B472
:103CEC0083B000AF786000BF0C37BD4680BC704716
:103CFC0080B483B000AF786000BF0C37BD4680BC89
:103D0C00704780B483B000AF786000BF0C37BD46FD
:103D1C0080BC704780B483B000AF786000BF0C37B4
:103D2C00BD4680BC7047000080B485B000AF7860A1
:103D3C0039607B681B68FB607B68294A93420BD017
:103D4C007B68B3F1804F07D07B68264A934203D03F
:103D5C007B68254A934208D1FB6823F07003FB6013
:103D6C003B685B68FA681343FB607B681C4A9342B0
:103D7C000BD07B68B3F1804F07D07B68194A934214
:103D8C0003D07B68184A934208D1FB6823F4407334
:103D9C00FB603B68DB68FA681343FB60FB6823F04D
:103DAC0080023B685B691343FB607B68FA681A60AE
:103DBC003B689A687B68DA623B681A687B689A622F
:103DCC007B68074A934203D13B681A697B681A6384
:103DDC007B6801225A6100BF1437BD4680BC704716
:103DEC00002C0140000400400008004080B487B063
:103DFC0000AF786039607B681B6A7B617B681B6AEB
:103E0C0023F001027B681A627B685B683B617B680C
:103E1C009B69FB60FB6823F07003FB60FB6823F07D
:103E2C000303FB603B681B68FA681343FB607B6908
:103E3C0023F002037B613B689B687A6913437B61C7
:103E4C007B681C4A93420CD17B6923F008037B618D
:103E5C003B68DB687A6913437B617B6923F004035D
:103E6C007B617B68134A934211D13B6923F48073C5
:103E7C003B613B6923F400733B613B685B693A69C6
:103E8C0013433B613B689B693A6913433B617B6815
:103E9C003A695A607B68FA689A613B685A687B6831
:103EAC005A637B687A691A6200BF1C37BD4680BCB6
:103EBC00704700BF002C014080B487B000AF786021
:103ECC0039607B681B6A7B617B681B6A23F010027C
:103EDC007B681A627B685B683B617B689B69FB60F3
:103EEC00FB6823F4E043FB60FB6823F44073FB6046
:103EFC003B681B681B02FA681343FB607B6923F069
:103F0C0020037B613B689B681B017A6913437B61CF
:103F1C007B681D4A93420DD17B6923F080037B6142
:103F2C003B68DB681B017A6913437B617B6923F077
:103F3C0040037B617B68144A934213D13B6923F4A1
:103F4C0080633B613B6923F400633B613B685B69C5
:103F5C009B003A6913433B613B689B699B003A6940
:103F6C0013433B617B683A695A607B68FA689A61D3
:103F7C003B685A687B689A637B687A691A6200BFEF
:103F8C001C37BD4680BC7047002C014080B487B004
:103F9C0000AF786039607B681B6A7B617B681B6A49
:103FAC0023F480727B681A627B685B683B617B6878
:103FBC00DB69FB60FB6823F07003FB60FB6823F09C
:103FCC000303FB603B681B68FA681343FB607B6967
:103FDC0023F400737B613B689B681B027A69134373
:103FEC007B617B681D4A93420DD17B6923F400638E
:103FFC007B613B68DB681B027A6913437B617B69DD
:10400C0023F480637B617B68144A934213D13B6930
:10401C0023F480533B613B6923F400533B613B68C1
:10402C005B691B013A6913433B613B689B691B014C
:10403C003A6913433B617B683A695A607B68FA685A
:10404C00DA613B685A687B68DA637B687A691A6262
:10405C0000BF1C37BD4680BC704700BF002C014020
:10406C0080B487B000AF786039607B681B6A3B61B5
:10407C007B681B6A23F480527B681A627B685B68DE
:10408C007B617B68DB69FB60FB6823F4E043FB60CE
:10409C00FB6823F44073FB603B681B681B02FA68E7
:1040AC001343FB603B6923F400533B613B689B6803
:1040BC001B033A6913433B617B680F4A934209D156
:1040CC007B6923F480437B613B685B699B017A6964
:1040DC0013437B617B687A695A607B68FA68DA61A2
:1040EC003B685A687B681A647B683A691A6200BF3D
:1040FC001C37BD4680BC7047002C014080B487B093
:10410C0000AFF860B9607A60FB681B6A7B61FB6882
:10411C001B6A23F00102FB681A62FB689B693B6116
:10412C003B6923F0F0033B617B681B013A69134345
:10413C003B617B6923F00A037B617A69BB6813439B
:10414C007B61FB683A699A61FB687A691A6200BF05
:10415C001C37BD4680BC704780B487B000AFF86098
:10416C00B9607A60FB681B6A7B61FB681B6A23F091
:10417C001002FB681A62FB689B693B613B6923F484
:10418C0070433B617B681B033A6913433B617B695A
:10419C0023F0A0037B61BB681B017A6913437B612D
:1041AC00FB683A699A61FB687A691A6200BF1C372E
:1041BC00BD4680BC704780B485B000AF7860396074
:1041CC007B689B68FB60FB6823F07003FB603A68BC
:1041DC00FB68134343F00703FB607B68FA689A6043
:1041EC0000BF1437BD4680BC704780B487B000AFA9
:1041FC00F860B9607A603B60FB689B687B617B69A7
:10420C0023F47F437B613B681A027B681A43BB68CB
:10421C0013437A6913437B61FB687A699A6000BF28
:10422C001C37BD4680BC704780B487B000AFF860C7
:10423C00B9607A60BB6803F01F03012202FA03F332
:10424C007B61FB681A6A7B69DB431A40FB681A6264
:10425C00FB681A6ABB6803F01F03796801FA03F361
:10426C001A43FB681A6200BF1C37BD4680BC7047FE
:10427C0080B485B000AF786039607B6893F83C30CF
:10428C00012B01D1022346E07B68012283F83C20FC
:10429C007B68022283F83D207B681B685B68FB60AF
:1042AC007B681B689B68BB60FB6823F07003FB603A
:1042BC003B681B68FA681343FB607B681B68FA68F1
:1042CC005A607B681B68164A93420ED07B681B6849
:1042DC00B3F1804F09D07B681B68124A934204D01B
:1042EC007B681B68104A93420CD1BB6823F0800397
:1042FC00BB603B685B68BA681343BB607B681B6838
:10430C00BA689A607B68012283F83D207B680022A2
:10431C0083F83C20002318461437BD4680BC7047F8
:10432C00002C0140000400400008004080B483B021
:10433C0000AF786000BF0C37BD4680BC704780B4BE
:10434C0083B000AF786000BF0C37BD4680BC7047AF
:10435C0080B582B000AF78607B68002B01D101235F
:10436C0042E07B6893F84130DBB2002B06D17B68CE
:10437C00002283F840207868FDF776FD7B682422C4
:10438C0083F841207B681B68DA687B681B6822F421
:10439C000052DA60786800F0C5FD7B681B681A690A
:1043AC007B681B6822F490421A617B681B685A690F
:1043BC007B681B6822F02A025A617B681B68DA68EA
:1043CC007B681B6842F40052DA607B6800225A64F6
:1043DC007B68202283F841207B68202283F84220CE
:1043EC007B6800225A63002318460837BD4680BDFF
:1043FC0080B58AB002AFF860B9603B601346FB80B1
:10440C0000237B61FB6893F84130DBB2202B6DD12C
:10441C00BB68002B02D0FB88002B01D1012366E086
:10442C00FB6800225A64FB68212283F84120FDF7C7
:10443C00D5FE7861FB68FA889A84FB68FA88DA847E
:10444C00FB689B68B3F5805F08D1FB681B69002B88
:10445C0004D10023FB61BB68BB6103E0BB68FB615B
:10446C000023BB612AE03B6800937B69002280211A
:10447C00F86800F014FB0346002B01D0032336E050
:10448C00FB69002B0BD1BB691B881A46FB681B68A8
:10449C00C2F308025A60BB690233BB6107E0FB69D7
:1044AC001A78FB681B685A60FB690133FB61FB6877
:1044BC00DB8C9BB2013B9AB2FB68DA84FB68DB8C29
:1044CC009BB2002BCFD13B6800937B69002240212B
:1044DC00F86800F0E4FA0346002B01D0032306E051
:1044EC00FB68202283F84120002300E002231846B9
:1044FC002037BD4680BD80B584B000AFF860B96090
:10450C001346FB80FB6893F84230DBB2202B12D1B0
:10451C00BB68002B02D0FB88002B01D101230BE0E0
:10452C00FB6800221A63FB881A46B968F86800F029
:10453C0024FB034600E0022318461037BD4680BD1D
:10454C0080B5BAB000AF78607B681B681B68C7F891
:10455C00E4307B681B68DB68C7F8E0307B681B685D
:10456C005B69C7F8DC300023C7F8D8300023C7F8E4
:10457C00D430D7F8E43003F00F03C7F8D830D7F8AD
:10458C00D830002B0FD1D7F8E43003F02003002BE8
:10459C0009D0D7F8E03003F02003002B03D0786863
:1045AC0000F001FC5BE2D7F8D830002B00F0DE8085
:1045BC00D7F8DC3003F00103002B06D1D7F8E0303C
:1045CC0003F49073002B00F0D180D7F8E43003F0A3
:1045DC000103002B0BD0D7F8E03003F48073002BD1
:1045EC0005D07B685B6C43F001027B685A64D7F89A
:1045FC00E43003F00403002B0BD0D7F8DC3003F0CD
:10460C000103002B05D07B685B6C43F002027B68D6
:10461C005A64D7F8E43003F00203002B0BD0D7F820
:10462C00DC3003F00103002B05D07B685B6C43F09E
:10463C0004027B685A64D7F8E43003F00803002BBB
:10464C0011D0D7F8E03003F02003002B05D1D7F8B8
:10465C00DC3003F00103002B05D07B685B6C43F06E
:10466C0008027B685A647B685B6C002B00F0F2815B
:10467C00D7F8E43003F02003002B08D0D7F8E03053
:10468C0003F02003002B02D0786800F08CFB7B68D1
:10469C001B685B6903F04003002B14BF012300234C
:1046AC00DBB2C7F8D4307B685B6C03F00803002BDB
:1046BC0003D1D7F8D430002B4FD0786800F096FA9D
:1046CC007B681B685B6903F04003002B41D07B685F
:1046DC001B681433C7F89C30D7F89C3053E8003F64
:1046EC00C7F89830D7F8983023F04003C7F8D0308B
:1046FC007B681B681433D7F8D020C7F8A820C7F8FC
:10470C00A430D7F8A410D7F8A82041E80023C7F8A4
:10471C00A030D7F8A030002BD9D17B68DB6B002BF5
:10472C0013D07B68DB6B7E4A5A637B68DB6B184665
:10473C00FDF7CAFE0346002B16D07B68DB6B5B6B68
:10474C007A68D26B104698470EE0786800F093F9BF
:10475C000AE0786800F08FF906E0786800F08BF9D1
:10476C007B6800225A6475E100BF73E17B681B6BA8
:10477C00012B40F04F81D7F8E43003F01003002BED
:10478C0000F04881D7F8E03003F01003002B00F064
:10479C0041810023BB607B681B681B68BB607B6826
:1047AC001B685B68BB60BB687B681B685B6903F05C
:1047BC004003002B00F0B6807B68DB6B1B685B68EA
:1047CC00A7F8BE30B7F8BE30002B00F045817B68EF
:1047DC009B8DB7F8BE209A4280F03E817B68B7F87B
:1047EC00BE20DA857B68DB6B9B69202B00F0888010
:1047FC007B681B680C33C7F88830D7F8883053E8CF
:10480C00003FC7F88430D7F8843023F48073C7F89E
:10481C00B8307B681B680C33D7F8B820C7F89420E5
:10482C00C7F89030D7F89010D7F8942041E80023BF
:10483C00C7F88C30D7F88C30002BD9D17B681B682B
:10484C0014337B677B6F53E8003F3B673B6F23F070
:10485C000103C7F8B4307B681B681433D7F8B42055
:10486C00C7F88020FB67F96FD7F8802041E8002358
:10487C00BB67BB6F002BE1D17B681B6814333B66B5
:10488C003B6E53E8003FFB65FB6D23F04003C7F81C
:10489C00B0307B681B681433D7F8B020FA66BB665F
:1048AC00B96EFA6E41E800237B667B6E002BE3D178
:1048BC007B68202283F842207B6800221A637B6885
:1048CC001B680C33FB64FB6C53E8003FBB64BB6C94
:1048DC0023F01003C7F8AC307B681B680C33D7F897
:1048EC00AC20BA657B65796DBA6D41E800233B65F8
:1048FC003B6D002BE3D17B68DB6B1846FDF7A9FD04
:10490C007B6802225A637B689A8D7B68DB8D9BB235
:10491C00D31A9BB21946786800F0B6F89CE000BF39
:10492C00BD4C00087B689A8D7B68DB8D9BB2D31ADB
:10493C00A7F8CE307B68DB8D9BB2002B00F08E800D
:10494C00B7F8CE30002B00F089807B681B680C33E5
:10495C00BB63BB6B53E8003F7B637B6B23F49073AF
:10496C00C7F8C8307B681B680C33D7F8C8207A644A
:10497C003B64396C7A6C41E80023FB63FB6B002BC6
:10498C00E3D17B681B6814337B627B6A53E8003F7E
:10499C003B623B6A23F00103C7F8C4307B681B6899
:1049AC001433D7F8C4203A63FB62F96A3A6B41E8D6
:1049BC000023BB62BB6A002BE3D17B68202283F807
:1049CC0042207B6800221A637B681B680C333B61B6
:1049DC003B6953E8003FFB60FB6823F01003C7F80A
:1049EC00C0307B681B680C33D7F8C020FA61BB6100
:1049FC00B969FA6941E800237B617B69002BE3D13B
:104A0C007B6802225A63B7F8CE301946786800F0FA
:104A1C003BF823E0D7F8E43003F08003002B09D0F7
:104A2C00D7F8E03003F08003002B03D0786800F057
:104A3C0053F914E0D7F8E43003F04003002B0ED008
:104A4C00D7F8E03003F04003002B08D0786800F072
:104A5C0092F904E000BF02E000BF00E000BFE837BD
:104A6C00BD4680BD80B483B000AF786000BF0C370A
:104A7C00BD4680BC704780B483B000AF786000BF87
:104A8C000C37BD4680BC704780B483B000AF7860F3
:104A9C000B467B8000BF0C37BD4680BC704780B591
:104AAC0090B000AFF860B9603B601346FB7150E00A
:104ABC00BB6CB3F1FF3F4CD0BB6C002B07D0FDF7A8
:104ACC008DFB02463B68D31ABA6C9A4241D2FB6802
:104ADC001B680C33BB62BB6A53E8003F7B627B6A8A
:104AEC0023F4D073FB63FB681B680C33FA6B7A639B
:104AFC003B63396B7A6B41E80023FB62FB6A002B4A
:104B0C00E5D1FB681B6814337B617B6953E8003F7C
:104B1C003B613B6923F00103BB63FB681B681433E7
:104B2C00BA6B3A62FB61F9693A6A41E80023BB61EE
:104B3C00BB69002BE5D1FB68202283F84120FB6880
:104B4C00202283F84220FB68002283F840200323B4
:104B5C000FE0FB681B681A68BB681340BA689A427E
:104B6C000CBF01230023DBB21A46FB799A429FD07B
:104B7C00002318464037BD4680BD80B485B000AFD9
:104B8C00F860B9601346FB80FB68BA689A62FB68F0
:104B9C00FA889A85FB68FA88DA85FB6800225A64E1
:104BAC00FB68222283F84220FB681B69002B07D08C
:104BBC00FB681B68DA68FB681B6842F48072DA6079
:104BCC00FB681B685A69FB681B6842F001025A615A
:104BDC00FB681B68DA68FB681B6842F02002DA602D
:104BEC00002318461437BD4680BC704780B495B07E
:104BFC0000AF78607B681B680C337B637B6B53E87E
:104C0C00003F3B633B6B23F49073FB647B681B6836
:104C1C000C33FA6C3A64FB63F96B3A6C41E8002391
:104C2C00BB63BB6B002BE5D17B681B6814333B6209
:104C3C003B6A53E8003FFB61FB6923F00103BB6453
:104C4C007B681B681433BA6CFA62BB62B96AFA6A85
:104C5C0041E800237B627B6A002BE5D17B681B6BF0
:104C6C00012B19D17B681B680C33FB60FB6853E884
:104C7C00003FBB60BB6823F010037B647B681B6840
:104C8C000C337A6CBA617B617969BA6941E80023AB
:104C9C003B613B69002BE5D17B68202283F84220E5
:104CAC007B6800221A6300BF5437BD4680BC704736
:104CBC0080B584B000AF78607B685B6AFB60FB6892
:104CCC000022DA85FB680022DA84F868FFF7D3FE4D
:104CDC0000BF1037BD4680BD80B485B000AF786092
:104CEC007B6893F84130DBB2212B3ED17B689B680B
:104CFC00B3F5805F14D17B681B69002B10D17B68E6
:104D0C001B6AFB60FB681B881A467B681B68C2F336
:104D1C0008025A607B681B6A9A1C7B681A6208E05E
:104D2C007B681B6A591C7A6811621A787B681B684D
:104D3C005A607B68DB8C9BB2013B9BB27A6819464C
:104D4C00D184002B0FD17B681B68DA687B681B68E9
:104D5C0022F08002DA607B681B68DA687B681B686B
:104D6C0042F04002DA60002300E0022318461437B8
:104D7C00BD4680BC704780B582B000AF78607B6860
:104D8C001B68DA687B681B6822F04002DA607B687B
:104D9C00202283F841207868FFF764FE0023184630
:104DAC000837BD4680BD80B58CB000AF78607B689D
:104DBC0093F84230DBB2222B40F0AE807B689B68CC
:104DCC00B3F5805F17D17B681B69002B13D10023CF
:104DDC00FB627B689B6ABB627B681B685B689BB2EF
:104DEC00C3F308039AB2BB6A1A807B689B6A9A1C4D
:104DFC007B689A6226E07B689B6AFB620023BB623D
:104E0C007B689B68B3F5805F07D07B689B68002B41
:104E1C000AD17B681B69002B06D17B681B685B6819
:104E2C00DAB2FB6A1A7008E07B681B685B68DBB25D
:104E3C0003F07F03DAB2FB6A1A707B689B6A5A1C18
:104E4C007B689A627B68DB8D9BB2013B9BB27A6874
:104E5C001946D185002B5DD17B681B68DA687B68AD
:104E6C001B6822F02002DA607B681B68DA687B68BA
:104E7C001B6822F48072DA607B681B685A697B6855
:104E8C001B6822F001025A617B68202283F84220C1
:104E9C007B6800225A637B681B6B012B35D17B68C6
:104EAC0000221A637B681B680C337B617B6953E8B7
:104EBC00003F3B613B6923F010037B627B681B68FE
:104ECC000C337A6A3A62FB61F9693A6A41E8002369
:104EDC00BB61BB69002BE5D17B681B681B6803F0C9
:104EEC001003102B0AD10023FB607B681B681B6826
:104EFC00FB607B681B685B68FB60FB687B689B8D59
:104F0C0019467868FFF7C0FD02E07868FBF722FECF
:104F1C00002302E0002300E0022318463037BD4690
:104F2C0080BD000080B584B000AF78607B681B68E2
:104F3C001B6923F440517B68DA687B681B680A4361
:104F4C001A617B689A687B681B691A437B685B698A
:104F5C001343BB607B681B68DB6823F4B05323F0FE
:104F6C000C037A681268B9680B43D3607B681B68C2
:104F7C005B6923F440717B689A697B681B680A4300
:104F8C005A617B681B682C4A934203D1FEF7A6F842
:104F9C00F86002E0FEF78EF8F860FA6813469B00A2
:104FAC0013449A001A447B685B689B00B2FBF3F3D2
:104FBC00224AA2FB03235B091901FA6813469B00E2
:104FCC0013449A001A447B685B689B00B2FBF3F2B3
:104FDC001A4BA3FB02035B09642000FB03F3D31AF7
:104FEC001B013233154AA2FB03235B0903F0F003C8
:104FFC001944FA6813469B0013449A001A447B68C0
:10500C005B689B00B2FBF3F20C4BA3FB02035B0946
:10501C00642000FB03F3D31A1B013233074AA2FBB3
:10502C0003235B0903F00F027B681B680A449A6038
:10503C0000BF1037BD4680BD003801401F85EB51C5
:10504C00002310B50446C0E90033C0E90433836083
:10505C0081814366C2818361194608225C3000F06D
:10506C00E5F90D4B246263620C4BA3620C4BE362BB
:10507C000C4B23630C4B9C4206D003F16802944208
:10508C0002D0D0339C4205D104F15800BDE8104049
:10509C0000F056BA10BD00BF89520008AB52000890
:1050AC00E352000807530008BC0D0020024A0349D4
:1050BC00034800F069B800BFE00000204158000828
:1050CC00EC00002041680C4B10B59942044601D00D
:1050DC0000F0B0FBA168094B994202D0204600F0C9
:1050EC00A9FBE168064B994204D02046BDE810406C
:1050FC0000F0A0BB10BD00BFBC0D0020240E002092
:10510C008C0E002010B50B4B0B4C0C4A20461A6031
:10511C0004210022FFF794FF04F168000122092109
:10512C00FFF78EFF04F1D0000222BDE810401221DF
:10513C00FFF786BFF40E0020BC0D0020B95000080C
:10514C00014800F0FEB900BFFD0E0020014800F040
:10515C00F9B900BFFD0E002010B50446FFF7F0FFB3
:10516C00236A1BB1BDE81040FFF7F0BF044B23626C
:10517C00044B1B68002BF5D1FFF7C4FFF2E700BF0F
:10518C00D1500008F40E00202DE9F843074688465C
:10519C0014460026D4E90195B9F1010905D5246816
:1051AC00002CF7D13046BDE8F883AB89012B07D929
:1051BC00B5F90E30013303D029463846C0470643B3
:1051CC006835E9E7036A70B505460E4684680BB985
:1051DC00FFF7C2FF636EDB0705D4A389980502D4E1
:1051EC00A06D00F0AEF9A389190713D523698BB113
:1051FC00013EA36816F8011F013BA360E9B9002B1F
:10520C002EDA22460A21284600F07BF8013007D01E
:10521C000A2507E02146284600F0B0F80028E7D020
:10522C004FF0FF35636EDA0705D4A3899B0502D4D2
:10523C00A06D00F087F9284670BD002B04DAA26936
:10524C009A4206DC0A2904D023685A1C2260197081
:10525C00CFE72246284600F054F80130C9D1DFE7E9
:10526C000A2523685A1C22601D70DBE7024B01469D
:10527C001868FFF7A7BF00BF3801002010B50C4617
:10528C00B1F90E1000F00EF90028ABBF636DA389C5
:10529C001B1823F48053ACBF6365A38110BD2DE9AB
:1052AC00F0411F468B890546DB050C46164605D595
:1052BC0002230022B1F90E1000F0E2F8A389324665
:1052CC0023F48053A38128463B46B4F90E10BDE865
:1052DC00F04100F0F9B810B50C46B1F90E1000F021
:1052EC00CFF8431CA38915BF606523F4805343F4A6
:1052FC008053A38118BFA38110BDB1F90E1000F02B
:10530C00AFB8F8B50E461446054618B1036A0BB98A
:10531C00FFF722FFA369A360A3891A0725D5236988
:10532C001BB323682269F6B2981A63693746834225
:10533C0004DC2146284600F07DFAE0B9A368013B65
:10534C00A36023685A1C22601E706269431C9A4237
:10535C0004D0A389DB0706D50A2E04D121462846A2
:10536C0000F068FA38B93846F8BD2146284600F0F6
:10537C0005F80028D5D04FF0FF37F4E738B52A4BA5
:10538C00054618680C4618B1036A0BB9FFF7E4FE22
:10539C00A389B4F90C20180722D4D90607D4092301
:1053AC002B6042F040034FF0FF30A38134E05807EC
:1053BC0012D5616B41B104F14403994202D02846E5
:1053CC0000F0C2F800236363A38923F02403A381B4
:1053DC000023636023692360A38943F00803A3813E
:1053EC0023694BB9A38903F42073B3F5007F03D071
:1053FC002146284600F06BFAA089B4F90C2010F075
:10540C0001030AD00023A36063695B42A361236993
:10541C0043B910F08000C4D138BD810758BF63690F
:10542C00A360F4E70020F7E73801002003460244AC
:10543C00934200D1704703F8011BF9E710B56AB12C
:10544C000139841810F8012B11F8013F9A4203D14D
:10545C00A04201D0002AF5D1D01A10BD1046FCE7AD
:10546C0038B50023054D044608462B60FCF7CBFDF0
:10547C00431C02D12B6803B1236038BDF80E002009
:10548C0038B50446084611460022054D2A601A46D6
:10549C00FCF7DDFD431C02D12B6803B1236038BD42
:1054AC00F80E002038B50446084611460022054D7A
:1054BC002A601A46FCF78AFD431C02D12B6803B103
:1054CC00236038BDF80E002038B504460846114656
:1054DC000022054D2A601A46FAF732FE431C02D10F
:1054EC002B6803B1236038BDF80E0020014B1868FF
:1054FC00704700BF3801002070B500260C4D0D4CD4
:10550C00641BA410A64209D100F050FA00260A4DE3
:10551C000A4C641BA410A64205D170BD55F8043B7F
:10552C0098470136EEE755F8043B98470136F2E709
:10553C00505B0008505B0008505B0008545B00088F
:10554C00704770477047000038B50546002940D0B9
:10555C0051F8043C0C1F002BB8BFE41800F0DCF829
:10556C001C4A136833B9636014602846BDE83840A0
:10557C0000F0D8B8A34208D9206821188B4201BF8B
:10558C0019685B6809182160EDE71A465B680BB176
:10559C00A342FAD911685018A0420BD120680144DB
:1055AC00501883421160E0D118685B6808441060A1
:1055BC005360DAE702D90C232B60D6E72068211858
:1055CC008B4201BF19685B680918216063605460E5
:1055DC00CBE738BD000F002070B50E4E0C4631687D
:1055EC00054611B900F0D2F930602146284600F08A
:1055FC00CDF9431C0AD0C41C24F00304A04207D0EC
:10560C00211A284600F0C2F9013001D14FF0FF34C5
:10561C00204670BD040F00202DE9F843CD1C25F069
:10562C00030508350C2D38BF0C25002D074601DB72
:10563C00A94205D90C2300263B603046BDE8F8830F
:10564C00DFF8D08000F068F8D8F800301C465CBB5E
:10565C0029463846FFF7C0FF431C044655D1D8F8FD
:10566C0000402646002E45D1002C48D023683146F8
:10567C00384604EB030900F089F981453FD12168D4
:10568C0038466D1A2946FFF7A7FF013037D023683B
:10569C002B442360D8F80030002B38D05A68A24233
:1056AC002BD100225A600FE02268521B1FD40B2A08
:1056BC0017D96119A342256018BF5960636808BFE8
:1056CC00C8F8001062514B60384604F10B0600F02C
:1056DC0029F826F00706231DF21AAED09B1BA35007
:1056EC00ABE7A3426268DDD1C8F80020ECE72346A3
:1056FC006468ACE734467668B4E71346CCE70C2311
:10570C0038463B6000F00EF897E72560DCE75B60FD
:10571C00FFDE00BF000F00200148FFF712BF00BFE3
:10572C00FC0E00200148FFF70DBF00BFFC0E00204F
:10573C008A89F8B5054610070C4657D44B68002BE0
:10574C0004DC0B6C002B01DC0020F8BDE66A002E9B
:10575C00FAD0002312F480522F68216A2B6032D0C9
:10576C00606DA3895A0705D56368C01A636B0BB1CA
:10577C00236CC01A00230246E66A2846216AB04709
:10578C00431CA38906D129681D292BD8284A0A4114
:10579C00D60727D4002262602269D904226004D57E
:1057AC00421C01D12B6803B96065616B2F60002925
:1057BC00CAD004F14403994202D02846FFF7C4FE34
:1057CC0000206063C1E701232846B047411CC8D1C3
:1057DC002B68002BC5D01D2B01D0162B01D12F60AF
:1057EC00B2E7A38943F04003A381AEE70F69002F12
:1057FC00AAD0930718BF00230E6808BF4B69F61B8D
:10580C000F608B60002E9FDD33463A462846216A96
:10581C00D4F828C0E047002806DCA3894FF0FF30FD
:10582C0043F04003A38190E70744361AEAE700BF30
:10583C00FEFFBFDF38B50B6905460C4613B90025D2
:10584C00284638BD18B1036A0BB9FFF785FCB4F9CB
:10585C000C30002BF3D0626ED00704D4990502D41F
:10586C00A06DFFF76EFE28462146FFF761FF636EC1
:10587C000546DA07E4D4A3899B05E1D4A06DFFF7B4
:10588C0061FEDDE770B50C46B1F90E101546002926
:10589C001E4696B00CDAA389002113F0800F0CBFC2
:1058AC004FF480634023002031602B6016B070BD34
:1058BC006A4600F049F80028EDDB019901F47041CB
:1058CC00A1F50053594259414FF48063EBE78B89A2
:1058DC0073B59D0706460C4607D504F147032360B4
:1058EC0023610123636102B070BD6A4601ABFFF70F
:1058FC00C9FF009905463046FFF78EFE48B9B4F94A
:10590C000C309A05EFD423F0030343F00203A38178
:10591C00E3E7A389206043F08003A381009B20610F
:10592C006361019B5BB13046B4F90E1000F01EF8B8
:10593C0028B1A38923F0030343F00103A381A389B6
:10594C001D43A581CFE7000038B50023064D044662
:10595C00084611462B60FCF761FB431C02D12B68F7
:10596C0003B1236038BD00BFF80E002038B500230A
:10597C00054D044608462B60FCF75FFB431C02D127
:10598C002B6803B1236038BDF80E002038B5002316
:10599C00054D044608462B60FCF766FB431C02D100
:1059AC002B6803B1236038BDF80E0020F8B500BF9A
:1059BC00F8BC08BC9E467047F8B500BFF8BC08BCE4
:0459CC009E4670473C
:1059D000446F6E65207475726E2061726F756E64AF
:1059E0000D000000446F6E652058595A0D000000EC
:1059F0004D6F64653A2053746F700D004D6F646590
:105A00003A2053746F7020436F6E7665796F720D14
:105A1000000000004D6F64653A2053746172742079
:105A2000436F6E7665796F720D00000041742068D7
:105A30006F6D6520580D0000417420686F6D652002
:105A4000590D0000417420686F6D65205A0D0000EB
:105A500053746F7020616C6C20417869730D000085
:105A6000417420686F6D650D000000004D6F646526
:105A70003A20486F6D650D004D6F64653A2054758E
:105A8000726E2041726F756E640D00004D6F64651B
:105A90003A205374617274207069636B696E672079
:105AA0007570200D000000004D6F64653A2053743E
:105AB0006F70207069636B696E67207570200D00D0
:105AC0004D6F64653A205374617274206162736F24
