:020000040800F2
:1000000000C0002069100008B10E0008B90E0008F9
:10001000C10E0008C90E0008D10E00080000000043
:10002000000000000000000000000000D90E0008E1
:10003000E50E000800000000F10E0008FD0E0008AB
:10004000B1100008B1100008B1100008B11000088C
:10005000B1100008B1100008B1100008B11000087C
:10006000B1100008B1100008B1100008B11000086C
:10007000B1100008B1100008B1100008B11000085C
:10008000B1100008B1100008B1100008B11000084C
:10009000B1100008B1100008B1100008090F0008E5
:1000A000B1100008B1100008B1100008B11000082C
:1000B000190F00082D0F0008B1100008B11000083A
:1000C000B1100008B1100008B1100008B11000080C
:1000D000B1100008410F0008B1100008B11000086D
:1000E000B1100008B1100008B1100008B1100008EC
:1000F000B1100008B1100008B1100008B1100008DC
:10010000B1100008B1100008B1100008B1100008CB
:10011000B1100008B1100008B1100008B1100008BB
:10012000B1100008B1100008B1100008B1100008AB
:1001300000000000000000000000000000000000BF
:1001400000000000000000000000000000000000AF
:10015000000000000000000000000000000000009F
:10016000000000000000000000000000000000008F
:10017000000000000000000000000000000000007F
:10018000000000000000000000000000000000006F
:10019000000000000000000000000000000000005F
:1001A000000000000000000000000000000000004F
:1001B000000000000000000000000000000000003F
:1001C000000000000000000000000000000000002F
:1001D000000000000000000000000000000000001F
:0401E0005FF8E0F1F3
:1001E40010B5054C237833B9044B13B10448AFF36D
:1001F40000800123237010BDAC000020000000002B
:10020400284E000808B5034B1BB103490348AFF35C
:10021400008008BD00000000B0000020284E000847
:1002240080B584B000AFF860B9607A607B689AB238
:100234004FF0FF33B968044803F022F87B6818468E
:100244001037BD4680BD00BF5801002080B582B084
:1002540000AF78607B681B68B3F1804F7CD1874B1B
:100264001B78002B78D0864B1B7883F00103DBB21C
:10027400002B2BD0834B1B680133824A1360824BC3
:100284001B68824A52F823207E4B1B689A421DDC6D
:100294007F4B1B6800229A63794B01221A707D4BB5
:1002A40001221A7002217C4801F06CFB03461A46B5
:1002B4007A4B1A60794B1B68002B0CBF0123002377
:1002C400DBB21A460221744801F073FB714B1B78B0
:1002D400002B41D0724B1A68724B1B689A4205DAA4
:1002E4006F4B1B6801336E4A136035E06C4B1A6820
:1002F4006C4B1B689A422FDB654B1B6828229A6360
:10030400604B1B68013B5F4A13605E4B1B68002B0C
:1003140022DC5F4B1B6800229A635E4B00221A703A
:10032400564B00221A70574B00221A605E4B1B6812
:1003340001335D4A13605D4B01221A70584B002251
:100344001A605B4B00221A7001228021594801F087
:1003540030FB594803F0E6FE7B681B68574A93421A
:1003640040F08880564B1B78002B00F08380554B5F
:100374001B7883F00103DBB2002B28D0524B1B689F
:100384000133514A1360504B1A68504B1B689A4210
:100394001DDB4F4B1B6800225A634A4B01221A7023
:1003A4004C4B01221A7001213B4801F0EBFA034641
:1003B4001A463A4B1A60394B1B68002B0CBF0123B9
:1003C4000023DBB21A460121334801F0F2FA414B13
:1003D4001B78002B4ED0404B1A68404B1B689A4246
:1003E40005DA3D4B1B6801333B4A136042E03A4B4C
:1003F4001A683A4B1B689A423CDB354B1B685A22FD
:100404005A63314B1B68013B2F4A136000224FF49F
:100414008041284801F0CDFA2B4B1B68002B29DCC6
:100424002B4B1B6800225A632A4B00221A70264B5E
:1004340000221A60284B00221A60214B00221A70F5
:10044400274B1B68274A1268274941F82320244B6D
:100454001B680133224A1360134B1B680133124A91
:100464001360224B00221A70104B01221A7020488C
:1004740003F058FE00BF0837BD4680BDC30100200D
:10048400C2010020A0010020A801002018000020C3
:10049400C8000020C0010020000C0140AC01002075
:1004A400680300203C0000206403002014000020A6
:1004B400C501002000100140A04E000800040040C7
:1004C400C4010020BF010020A40100202800002056
:1004D40010010020C1010020C801002040000020BC
:1004E400600300205C030020CC010020C601002032
:1004F400BC4E000880B582B000AF0346FB80FB8889
:10050400202B2CD1184B1B7883F00103DBB2002B7A
:1005140025D0164B1B78002B21D04FF4967000F099
:1005240029FE134B1B68134A1268134941F8232010
:100534000F4B1B6801330E4A13604FF4167000F022
:1005440019FE002280210D4801F033FA064B0122E6
:100554001A700B4B20225A61094B20225A6100BFAA
:100564000837BD4680BD00BFC5010020C60100207C
:100574006003002010000020CC0100200010014086
:100584000004014080B582B000AF78607B681B68CE
:100594001A4A93422ED10F2219491A4802F0F3FE47
:1005A4001749194803F056FD184B1B680F221946CA
:1005B400134803F09FFE0346002B09D0144B1B681D
:1005C4000F2219460E4803F095FE0346002B06D170
:1005D400104B0B4A1A60104B01221A700AE00F4BA1
:1005E4001B680F4A064942F823100C4B1B68013361
:1005F4000A4A13600837BD4680BD00BF0038014079
:10060400B001002058010020D84E0008040000204A
:10061400080000205C030020C601002060030020C5
:10062400CC01002080B500AF744B1B68744A52F8AB
:100634002330744A11680F22184603F05BFE034608
:10064400002B10D1704803F06DFD002280216F480B
:1006540001F0AFF96E4B01221A70684B1B6801332D
:10066400664A1360C8E0654B1B68654A52F823303C
:10067400684A11680F22184603F03CFE0346002B1B
:100684002AD1654803F04EFD644B00221A70644B76
:1006940000221A70634B01221A70002280215B48E9
:1006A40001F087F901224FF48041584801F081F9A3
:1006B400002201215C4801F07CF9554B00221A709C
:1006C4005A4801F007FE0021584801F0BBFE574B81
:1006D4001B685A225A638FE0484B1B68484A52F8F9
:1006E4002330534A11680F22184603F003FE0346D1
:1006F400002B10D14F4803F015FD012280214348FF
:1007040001F057F9424B01221A703C4B1B6801332C
:100714003A4A136070E0394B1B68394A52F8233067
:10072400454A11680F22184603F0E4FD0346002BE6
:100734002AD1424803F0F6FC414B00221A60012200
:100744000221394801F035F93E4B00221A703E4B24
:1007540000221A703D4B01221A702D4B00221A7090
:100764003B4B1B683B4A13603B4B1B683B4A136083
:100774003B4801F0AFFD0421394801F063FE384BDA
:100784001B6828229A6337E01C4B1B681C4A52F8EA
:100794002330344A11680F22184603F0ABFD034698
:1007A400002B29D1304803F0BDFC254B02221A60EE
:1007B400012202211C4801F0FCF8224B00221A708D
:1007C400214B00221A70214B01221A70104B002277
:1007D4001A701F4B5B681F4A13601F4B5B681F4AEC
:1007E40013601F4801F076FD04211D4801F02AFE24
:1007F4001B4B1B6828229A6380BD00BF6403002042
:10080400CC01002000000020E44E0008001001404C
:100814001400002010000020004F0008BF01002039
:10082400C1010020C4010020000C0140100100207F
:100834000C0000201C4F000804000020504E00084B
:10084400A8010020C2010020C0010020C301002033
:100854002C0000203C000020340000204000002038
:10086400C800002008000020604E000880B500AFDA
:10087400034B1B78002B01D0FFF7D4FE00BF80BDD3
:100884001400002080B500AF00F012FC00F014F852
:1008940000F060F900F034F900F048F800F0BAF81C
:1008A4000F220349034802F06EFDFFF7DFFFFCE768
:1008B400B00100205801002080B590B000AF07F1CE
:1008C400180328220021184603F00CFD3B1D0022CA
:1008D4001A605A609A60DA601A610123BB614FF4AE
:1008E4008033FB6100237B6307F11803184601F092
:1008F40091F80346002B01D000F0BCF90F237B6074
:100904000123BB600023FB6000233B6100237B6168
:100914003B1D0021184601F0FFFA0346002B01D0CD
:1009240000F0A8F900BF4037BD4680BD80B58EB049
:1009340000AF07F1280300221A605A609A60DA6057
:1009440007F1200300221A605A603B1D00221A603E
:100954005A609A60DA601A615A619A612C4B4FF0BE
:1009640080421A602A4B4F225A60294B00229A6017
:10097400274B3122DA60264B00221A61244B802255
:100984009A61234801F056FC0346002B01D000F085
:1009940071F94FF48053BB6207F1280319461C48D0
:1009A40001F0D4FF0346002B01D000F063F918488E
:1009B40001F0F0FC0346002B01D000F05BF90023AA
:1009C4003B6200237B6207F120031946104802F0C2
:1009D40089FB0346002B01D000F04CF960237B60B7
:1009E4001323BB600023FB6000237B613B1D0422B7
:1009F4001946074801F0E8FE0346002B01D000F039
:100A040039F9034800F0AEF900BF3837BD4680BD60
:100A1400C800002080B58EB000AF07F12803002283
:100A24001A605A609A60DA6007F1200300221A60A3
:100A34005A603B1D00221A605A609A60DA601A619B
:100A44005A619A612C4B2D4A1A602B4B4F225A60E3
:100A5400294B00229A60284BC722DA60264B0022D9
:100A64001A61254B80229A61234801F0E3FB034677
:100A7400002B01D000F0FEF84FF48053BB6207F165
:100A8400280319461C4801F061FF0346002B01D0DE
:100A940000F0F0F8184801F07DFC0346002B01D06B
:100AA40000F0E8F800233B6200237B6207F1200397
:100AB4001946114802F016FB0346002B01D000F042
:100AC400D9F860237B606423BB600023FB600023B0
:100AD4007B613B1D00221946074801F075FE034661
:100AE400002B01D000F0C6F8034800F03BF900BF2A
:100AF4003837BD4680BD00BF10010020000400400F
:100B040080B500AF114B124A1A60104B4FF4E1321A
:100B14005A600E4B00229A600C4B0022DA600B4B99
:100B240000221A61094B0C225A61084B00229A6177
:100B3400064B0022DA61054802F052FB0346002B03
:100B440001D000F097F800BF80BD00BF580100201D
:100B54000038014080B588B000AF07F110030022CF
:100B64001A605A609A60DA603E4B9B693D4A43F0D2
:100B7400100393613B4B9B6903F01003FB60FB681C
:100B8400384B9B69374A43F020039361354B9B698B
:100B940003F02003BB60BB68324B9B69314A43F0CE
:100BA400040393612F4B9B6903F004037B607B6810
:100BB4002C4B9B692B4A43F008039361294B9B6997
:100BC40003F008033B603B6800224FF48141264850
:100BD40000F0EFFE00220321244800F0EAFE4FF467
:100BE40080433B6101237B610023BB610223FB61E2
:100BF40007F1100319461C4800F030FD03233B6144
:100C040001237B610023BB610223FB6107F1100315
:100C14001946164800F022FD80233B6101237B61C5
:100C24000123BB610223FB6107F1100319460E483F
:100C340000F014FD20233B610D4B7B610123BB615C
:100C440007F110031946094800F008FD00220121AC
:100C5400172000F08AFB172000F0A3FB00BF203709
:100C6400BD4680BD0010024000100140000C014050
:100C74000000211080B400AF72B600BF00BFFDE7D2
:100C840080B485B000AF154B9B69144A43F001034F
:100C94009361124B9B6903F00103BB60BB680F4B6C
:100CA400DB690E4A43F08053D3610C4BDB6903F0DC
:100CB40080537B607B680A4B5B68FB60FB6823F0B6
:100CC400E063FB60FB6843F00073FB60044AFB686D
:100CD400536000BF1437BD4680BC7047001002400B
:100CE4000000014080B584B000AF78607B681B6869
:100CF400B3F1804F14D1194BDB69184A43F0010357
:100D0400D361164BDB6903F00103FB60FB6800222F
:100D140000211C2000F029FB1C2000F042FB18E0FD
:100D24007B681B680E4A934213D10C4BDB690B4A58
:100D340043F00203D361094BDB6903F00203BB6098
:100D4400BB68002200211D2000F00FFB1D2000F0D5
:100D540028FB00BF1037BD4680BD00BF0010024015
:100D64000004004080B588B000AF786007F110033C
:100D740000221A605A609A60DA607B681B68B3F1DB
:100D8400804F18D11C4B9B691B4A43F004039361A9
:100D9400194B9B6903F00403FB60FB6802233B616E
:100DA40002237B610223FB6107F1100319461348F8
:100DB40000F054FC1CE07B681B68114A934217D175
:100DC4000D4B9B690C4A43F0040393610A4B9B69E6
:100DD40003F00403BB60BB6840233B6102237B61D7
:100DE4000223FB6107F110031946044800F036FCA6
:100DF40000BF2037BD4680BD0010024000080140FE
:100E04000004004080B588B000AF786007F110039B
:100E140000221A605A609A60DA607B681B68204A74
:100E2400934239D11F4B9B691E4A43F4804393611B
:100E34001C4B9B6903F48043FB60FB68194B9B6963
:100E4400184A43F004039361164B9B6903F00403AF
:100E5400BB60BB684FF400733B6102237B610323D7
:100E6400FB6107F1100319460F4800F0F7FB4FF43C
:100E740080633B6100237B610023BB6107F11003A6
:100E84001946094800F0EAFB00220121252000F060
:100E94006CFA252000F085FA00BF2037BD4680BDDE
:100EA40000380140001002400008014080B400AF47
:100EB40000BFFDE780B400AF00BFFDE780B400AF22
:100EC40000BFFDE780B400AF00BFFDE780B400AF12
:100ED40000BFFDE780B400AF00BFBD4680BC7047D3
:100EE40080B400AF00BFBD4680BC704780B400AF83
:100EF40000BFBD4680BC704780B500AF00F01EF94E
:100F040000BF80BD80B500AF202000F06BFD00BFA6
:100F140080BD000080B500AF024801F04DFB00BF6A
:100F240080BD00BFC800002080B500AF024801F0BA
:100F340043FB00BF80BD00BF1001002080B500AF9F
:100F4400024802F045FA00BF80BD00BF58010020EE
:100F540080B586B000AFF860B9607A6000237B6129
:100F64000AE0AFF300800146BB685A1CBA60CAB2FB
:100F74001A707B6901337B617A697B689A42F0DB82
:100F84007B6818461837BD4680BD80B483B000AF77
:100F940078604FF0FF3318460C37BD4680BC70476D
:100FA40080B483B000AF786039603B684FF400527E
:100FB4005A60002318460C37BD4680BC704780B485
:100FC40083B000AF7860012318460C37BD4680BC5F
:100FD400704780B485B000AFF860B9607A600023D0
:100FE40018461437BD4680BC7047000080B586B0F3
:100FF40000AF7860144A154BD31A7B617B693B615F
:10100400134B1B68002B02D1114B124A1A60104B70
:101014001A687B6813443A699A4207D203F0C2F90A
:1010240003460C221A604FF0FF3309E0084B1B689B
:10103400FB60074B1A687B681344054A1360FB681E
:1010440018461837BD4680BD00C0002000040000CB
:101054006C030020C004002080B400AF00BFBD4674
:1010640080BC7047FFF7F8FF0B480C490C4A00237B
:1010740002E0D458C4500433C4188C42F9D3094A4A
:10108400094C002301E013600432A242FBD303F0B5
:101094008FF9FFF7F7FB704700000020AC00002039
:1010A400A04F0008AC000020C0040020FEE70000B0
:1010B40080B500AF084B1B68074A43F01003136068
:1010C400032000F047F9002000F008F8FFF7D8FDEE
:1010D4000023184680BD00BF0020024080B582B0C6
:1010E40000AF7860124B1A68124B1B7819464FF404
:1010F4007A73B3FBF1F3B2FBF3F3184600F05FF934
:101104000346002B01D001230EE07B680F2B0AD885
:10111400002279684FF0FF3000F027F9064A7B6817
:101124001360002300E0012318460837BD4680BD44
:10113400440000204C0000204800002080B400AF90
:10114400054B1B781A46054B1B681344034A13606E
:1011540000BFBD4680BC70474C00002070030020D7
:1011640080B400AF024B1B681846BD4680BC704774
:101174007003002080B584B000AF7860FFF7F0FF03
:10118400B8607B68FB60FB68B3F1FF3F05D00A4B96
:101194001B781A46FB681344FB6000BFFFF7E0FFAF
:1011A4000246BB68D31AFA689A42F7D800BF00BF58
:1011B4001037BD4680BD00BF4C00002080B485B010
:1011C40000AF78607B6803F00703FB600C4BDB68BF
:1011D400BB60BA684FF6FF031340BB60FB681A029A
:1011E400BB68134343F0BF6343F40033BB60044A5A
:1011F400BB68D36000BF1437BD4680BC704700BFD6
:1012040000ED00E080B400AF044BDB681B0A03F080
:1012140007031846BD4680BC704700BF00ED00E0E0
:1012240080B483B000AF0346FB7197F90730002BFD
:101234000BDBFB7903F01F02064997F907305B09C2
:10124400012000FA02F241F8232000BF0C37BD460A
:1012540080BC704700E100E080B483B000AF034677
:101264003960FB7197F90730002B0ADB3B68DAB26F
:101274000C4997F907301201D2B20B4483F80023CA
:101284000AE03B68DAB20849FB7903F00F03043B38
:101294001201D2B20B441A7600BF0C37BD4680BC93
:1012A400704700BF00E100E000ED00E080B489B0C9
:1012B40000AFF860B9607A60FB6803F00703FB6174
:1012C400FB69C3F10703042B28BF0423BB61FB693B
:1012D4000433062B02D9FB69033B00E000237B6146
:1012E4004FF0FF32BB6902FA03F3DA43BB681A40DA
:1012F4007B699A404FF0FF317B6901FA03F3D943CC
:101304007B680B40134318462437BD4680BC7047A6
:1013140080B582B000AF78607B68013BB3F1807F19
:1013240001D301230FE00A4A7B68013B53600F217C
:101334004FF0FF30FFF790FF054B00229A60044BFB
:1013440007221A60002318460837BD4680BD00BF37
:1013540010E000E080B582B000AF78607868FFF7F5
:101364002DFF00BF0837BD4680BD80B586B000AFF5
:101374000346B9607A60FB7300237B61FFF742FF89
:1013840078617A68B9687869FFF790FF024697F93F
:101394000F3011461846FFF75FFF00BF1837BD46F0
:1013A40080BD80B582B000AF0346FB7197F907306A
:1013B4001846FFF735FF00BF0837BD4680BD80B52E
:1013C40082B000AF78607868FFF7A2FF0346184642
:1013D4000837BD4680BD80B485B000AF7860002377
:1013E400FB737B6893F82130DBB2022B08D07B6857
:1013F40004229A637B68002283F82020012320E0E2
:101404007B681B681A687B681B6822F00E021A60EE
:101414007B681B681A687B681B6822F001021A60EB
:101424007B681A6C7B68DB6B012101FA02F25A605B
:101434007B68012283F821207B68002283F8202026
:10144400FB7B18461437BD4680BC704780B584B01A
:1014540000AF78600023FB737B6893F82130DBB224
:10146400022B05D07B6804229A630123FB73D6E028
:101474007B681B681A687B681B6822F00E021A607E
:101484007B681B681A687B681B6822F001021A607B
:101494007B681B681A46644B9A4258D97B681B6860
:1014A400624A93424FD07B681B68614A934248D09A
:1014B4007B681B685F4A934240D07B681B685E4A26
:1014C400934238D07B681B685C4A934230D07B6877
:1014D4001B685B4A934228D07B681B68524A93423C
:1014E40020D07B681B68574A934219D07B681B68DD
:1014F400554A934212D07B681B68544A93420AD0DF
:101504007B681B68524A934202D14FF480531BE01C
:101514004FF4803318E04FF4807315E0102313E088
:10152400012311E04FF080730EE04FF480130BE0C1
:101534004FF4803308E04FF4805305E04FF4807398
:1015440002E0102300E00123424A536057E07B6825
:101554001B68364A93424FD07B681B68344A9342D7
:1015640048D07B681B68334A934240D07B681B6831
:10157400314A934238D07B681B68304A934230D05A
:101584007B681B682E4A934228D07B681B68264AD6
:10159400934220D07B681B682A4A934219D07B6807
:1015A4001B68294A934212D07B681B68274A9342DE
:1015B4000AD07B681B68264A934202D14FF48053B9
:1015C4001BE04FF4803318E04FF4807315E01023D0
:1015D40013E0012311E04FF080730EE04FF4801309
:1015E4000BE04FF4803308E04FF4805305E04FF4F0
:1015F400807302E0102300E00123174A53607B68E4
:10160400012283F821207B68002283F820207B6854
:101614005B6B002B03D07B685B6B78689847FB7B24
:1016240018461037BD4680BD8000024008000240C5
:101634001C000240300002404400024058000240B6
:101644006C000240080402401C04024030040240C2
:1016540044040240000402400000024080B48BB005
:1016640000AF7860396000237B6200233B6279E13C
:1016740001227B6A02FA03F3FB613B681B68FA6987
:101684001340BB61BA69FB699A4240F068813B68C8
:101694005B68964A93425ED0944A934275D8944AC2
:1016A400934258D0924A93426FD8924A934252D06E
:1016B400904A934269D8904A93424CD08E4A9342BE
:1016C40063D88E4A934246D08C4A93425DD8122BFB
:1016D4002AD8122B59D801A252F823F05B1700081C
:1016E4003517000847170008891700088F170008E6
:1016F4008F1700088F1700088F1700088F1700082E
:101704008F1700088F1700088F1700088F1700081D
:101714008F1700088F1700088F1700088F1700080D
:101724003D17000851170008754A934213D02CE066
:101734003B68DB683B6229E03B68DB6804333B625F
:1017440024E03B68DB6808333B621FE03B68DB68EE
:101754000C333B621AE03B689B68002B02D10423E4
:101764003B6213E03B689B68012B05D108233B6275
:101774007B68FA691A6109E008233B627B68FA69AD
:101784005A6103E000233B6200E000BFBB69FF2B0A
:1017940001D87B6801E07B6804337B61BB69FF2B64
:1017A40002D87B6A9B0002E07B6A083B9B003B619A
:1017B4007B691A680F213B6901FA03F3DB431A4082
:1017C400396A3B6901FA03F31A437B691A603B687F
:1017D4005B6803F08053002B00F0C180494B9B6988
:1017E400484A43F001039361464B9B6903F00103AC
:1017F400BB60BB68444A7B6A9B08023352F82330BF
:10180400FB607B6A03F003039B000F2202FA03F3DD
:10181400DB43FA681340FB607B683C4A93421FD069
:101824007B683B4A934219D07B683A4A934213D06F
:101834007B68394A93420DD07B68384A934207D07B
:101844007B68374A934201D105230AE0062308E066
:10185400042306E0032304E0022302E0012300E062
:1018640000237A6A02F0030292009340FA68134359
:10187400FB6025497B6A9B080233FA6841F8232000
:101884003B685B6803F48013002B06D0254B9A68F1
:101894002449BB6913438B6006E0224B9A68BB69F9
:1018A400DB43204913408B603B685B6803F40013FF
:1018B400002B06D01B4BDA681A49BB691343CB6073
:1018C40006E0184BDA68BB69DB4316491340CB606A
:1018D4003B685B6803F40033002B25D0114B5A6836
:1018E4001049BB6913434B6025E000BF0000321070
:1018F400000031100000221000002110000012101E
:1019040000001110001002400000014000080140D6
:10191400000C014000100140001401400018014077
:10192400001C014000040140154B5A68BB69DB43AD
:10193400134913404B603B685B6803F48033002B0E
:1019440006D00F4B1A680E49BB6913430B6006E0BF
:101954000B4B1A68BB69DB43094913400B607B6A74
:1019640001337B623B681A687B6A22FA03F3002B1B
:101974007FF47EAE00BF00BF2C37BD4680BC7047ED
:101984000004014080B485B000AF78600B467B80D2
:101994007B689A687B881340002B02D00123FB7379
:1019A40001E00023FB73FB7B18461437BD4680BC63
:1019B400704780B483B000AF78600B467B801346D9
:1019C4007B707B78002B03D07A887B681A6103E0F4
:1019D4007B881A047B681A6100BF0C37BD4680BC43
:1019E4007047000080B582B000AF0346FB80084B0F
:1019F4005A69FB881340002B06D0054AFB885361C3
:101A0400FB881846FEF776FD00BF0837BD4680BD4B
:101A14000004014080B586B000AF78607B68002B7D
:101A240001D1012372E27B681B6803F00103002BE0
:101A340000F08780924B5B6803F00C03042B0CD0FE
:101A44008F4B5B6803F00C03082B12D18C4B5B6843
:101A540003F48033B3F5803F0BD1894B1B6803F447
:101A64000033002B6CD07B685B68002B68D10123AA
:101A74004CE27B685B68B3F5803F06D1804B1B6802
:101A84007F4A43F4803313602EE07B685B68002B4D
:101A94000CD17B4B1B687A4A23F480331360784B58
:101AA4001B68774A23F4802313601DE07B685B681E
:101AB400B3F5A02F0CD1724B1B68714A43F48023F9
:101AC40013606F4B1B686E4A43F4803313600BE062
:101AD4006B4B1B686A4A23F480331360684B1B68A2
:101AE400674A23F4802313607B685B68002B13D060
:101AF400FFF736FB386108E0FFF732FB02463B692B
:101B0400D31A642B01D9032300E25D4B1B6803F451
:101B14000033002BF0D014E0FFF722FB386108E01B
:101B2400FFF71EFB02463B69D31A642B01D903233A
:101B3400ECE1534B1B6803F40033002BF0D100E0BD
:101B440000BF7B681B6803F00203002B63D04C4B7F
:101B54005B6803F00C03002B0BD0494B5B6803F06C
:101B64000C03082B1CD1464B5B6803F48033002B19
:101B740016D1434B1B6803F00203002B05D07B688E
:101B84001B69012B01D00123C0E13D4B1B6823F0ED
:101B9400F8027B685B69DB00394913430B603AE068
:101BA4007B681B69002B20D0364B01221A60FFF79B
:101BB400D7FA386108E0FFF7D3FA02463B69D31A33
:101BC400022B01D90323A1E12D4B1B6803F002036F
:101BD400002BF0D02A4B1B6823F0F8027B685B696A
:101BE400DB00274913430B6015E0264B00221A60E3
:101BF400FFF7B6FA386108E0FFF7B2FA02463B692C
:101C0400D31A022B01D9032380E11D4B1B6803F077
:101C14000203002BF0D17B681B6803F00803002B40
:101C24003AD07B689B69002B19D0174B01221A60AC
:101C3400FFF796FA386108E0FFF792FA02463B692B
:101C4400D31A022B01D9032360E10D4B5B6A03F025
:101C54000203002BF0D0012000F0CEFA1CE00A4B66
:101C640000221A60FFF77CFA38610FE0FFF778FA78
:101C740002463B69D31A022B08D9032346E100BF6D
:101C8400001002400000424280044242924B5B6AD0
:101C940003F00203002BE9D17B681B6803F0040303
:101CA400002B00F0A6800023FB758B4BDB6903F04F
:101CB4008053002B0DD1884BDB69874A43F0805356
:101CC400D361854BDB6903F08053BB60BB680123A0
:101CD400FB75824B1B6803F48073002B18D17F4B78
:101CE4001B687E4A43F480731360FFF739FA386146
:101CF40008E0FFF735FA02463B69D31A642B01D991
:101D0400032303E1754B1B6803F48073002BF0D0AD
:101D14007B68DB68012B06D16F4B1B6A6E4A43F06C
:101D2400010313622DE07B68DB68002B0CD16A4B46
:101D34001B6A694A23F001031362674B1B6A664AF4
:101D440023F0040313621CE07B68DB68052B0CD1D1
:101D5400614B1B6A604A43F0040313625E4B1B6AC7
:101D64005D4A43F0010313620BE05B4B1B6A5A4A62
:101D740023F001031362584B1B6A574A23F00403F0
:101D840013627B68DB68002B15D0FFF7E9F9386133
:101D94000AE0FFF7E5F902463B69D31A41F28832BB
:101DA400934201D90323B1E04B4B1B6A03F00203B6
:101DB400002BEED014E0FFF7D3F938610AE0FFF707
:101DC400CFF902463B69D31A41F28832934201D9D2
:101DD40003239BE0404B1B6A03F00203002BEED16C
:101DE400FB7D012B05D13C4BDB693B4A23F080533F
:101DF400D3617B68DB69002B00F08780364B5B681E
:101E040003F00C03082B61D07B68DB69022B46D1FD
:101E1400334B00221A60FFF7A3F9386108E0FFF79B
:101E24009FF902463B69D31A022B01D903236DE0C3
:101E3400294B1B6803F00073002BF0D17B681B6AED
:101E4400B3F5803F08D1244B5B6823F400327B68F0
:101E54009B68214913434B601F4B5B6823F4741246
:101E64007B68196A7B685B6A0B431B4913434B60AD
:101E74001B4B01221A60FFF773F9386108E0FFF782
:101E84006FF902463B69D31A022B01D903233DE0C3
:101E9400114B1B6803F00073002BF0D035E0104B9E
:101EA40000221A60FFF75CF9386108E0FFF758F97F
:101EB40002463B69D31A022B01D9032326E0064BC1
:101EC4001B6803F00073002BF0D11EE07B68DB6914
:101ED400012B07D1012319E00010024000700040DB
:101EE400600042420B4B5B68FB60FB6803F480328A
:101EF4007B681B6A9A4206D1FB6803F470127B6804
:101F04005B6A9A4201D0012300E000231846183787
:101F1400BD4680BD0010024080B584B000AF78603B
:101F240039607B68002B01D10123D0E06A4B1B6828
:101F340003F007033A689A4210D9674B1B6823F0F1
:101F4400070265493B6813430B60634B1B6803F04E
:101F540007033A689A4201D00123B8E07B681B6802
:101F640003F00203002B20D07B681B6803F00403FA
:101F7400002B05D0594B5B68584A43F4E063536027
:101F84007B681B6803F00803002B05D0534B5B6888
:101F9400524A43F460535360504B5B6823F0F002A1
:101FA4007B689B684D4913434B607B681B6803F057
:101FB4000103002B40D07B685B68012B07D1474BA2
:101FC4001B6803F40033002B15D101237FE07B68E9
:101FD4005B68022B07D1414B1B6803F00073002B95
:101FE40009D1012373E03D4B1B6803F00203002B6E
:101FF40001D101236BE0394B5B6823F003027B685A
:102004005B68364913434B60FFF7AAF8F8600AE0AF
:10201400FFF7A6F80246FB68D31A41F288329342CE
:1020240001D9032353E02D4B5B6803F00C027B685A
:102034005B689B009A42EBD1274B1B6803F00703B4
:102044003A689A4210D2244B1B6823F007022249B3
:102054003B6813430B60204B1B6803F007033A688B
:102064009A4201D0012332E07B681B6803F0040329
:10207400002B08D0194B5B6823F4E0627B68DB68B3
:10208400164913434B607B681B6803F00803002B5D
:1020940009D0124B5B6823F460527B681B69DB0038
:1020A4000E4913434B6000F021F802460B4B5B686A
:1020B4001B0903F00F030A49CB5C22FA03F3094A14
:1020C4001360094B1B681846FFF708F800231846ED
:1020D4001037BD4680BD00BF002002400010024002
:1020E400384F0008440000204800002080B487B026
:1020F40000AF0023FB600023BB6000237B6100234F
:102104007B6000233B611E4B5B68FB60FB6803F054
:102114000C03042B02D0082B03D027E0194B3B619E
:1021240027E0FB689B0C03F00F03174AD35C7B602A
:10213400FB6803F48033002B10D0114B5B685B0CFD
:1021440003F00103114AD35CBB607B680D4A03FBB7
:1021540002F2BB68B2FBF3F37B6104E07B680C4AD8
:1021640002FB03F37B617B693B6102E0054B3B614E
:1021740000BF3B6918461C37BD4680BC704700BF92
:102184000010024000127A00504F0008604F00080F
:1021940000093D0080B400AF024B1B681846BD46E1
:1021A40080BC70474400002080B500AFFFF7F2FF09
:1021B4000246054B5B681B0A03F007030349CB5C2B
:1021C40022FA03F3184680BD00100240484F00086D
:1021D40080B500AFFFF7DEFF0246054B5B68DB0A04
:1021E40003F007030349CB5C22FA03F3184680BDCE
:1021F40000100240484F000880B485B000AF7860FA
:102204000A4B1B680A4AA2FB03235B0A7A6802FB97
:1022140003F3FB6000BFFB685A1EFA60002BF9D180
:1022240000BF00BF1437BD4680BC70474400002087
:10223400D34D621080B582B000AF78607B68002B0C
:1022440001D1012341E07B6893F83D30DBB2002BE0
:1022540006D17B68002283F83C207868FEF742FDB3
:102264007B68022283F83D207B681A687B6804330C
:102274001946104600F056FC7B68012283F846207C
:102284007B68012283F83E207B68012283F83F208B
:102294007B68012283F840207B68012283F8412077
:1022A4007B68012283F842207B68012283F8432063
:1022B4007B68012283F844207B68012283F845204F
:1022C4007B68012283F83D20002318460837BD4669
:1022D40080BD000080B485B000AF78607B6893F85F
:1022E4003D30DBB2012B01D0012344E07B680222A4
:1022F40083F83D207B681B68DA687B681B6842F0C2
:102304000102DA607B681B681D4A934218D07B681F
:102314001B681C4A934213D07B681B68B3F1804F3F
:102324000ED07B681B68184A934209D07B681B68EF
:10233400164A934204D07B681B68154A934211D114
:102344007B681B689B6803F00703FB60FB68062B34
:1023540010D07B681B681A687B681B6842F0010216
:102364001A6007E07B681B681A687B681B6842F088
:1023740001021A60002318461437BD4680BC70471A
:10238400002C0140003401400004004000080040DB
:10239400000C004080B582B000AF78607B68002BF1
:1023A40001D1012341E07B6893F83D30DBB2002B7F
:1023B40006D17B68002283F83C20786800F039F865
:1023C4007B68022283F83D207B681A687B680433AB
:1023D4001946104600F0A6FB7B68012283F84620CC
:1023E4007B68012283F83E207B68012283F83F202A
:1023F4007B68012283F840207B68012283F8412016
:102404007B68012283F842207B68012283F8432001
:102414007B68012283F844207B68012283F84520ED
:102424007B68012283F83D20002318460837BD4607
:1024340080BD80B483B000AF786000BF0C37BD4668
:1024440080BC704780B584B000AF786039603B6869
:10245400002B09D17B6893F83E30DBB2012B14BF0B
:1024640001230023DBB222E03B68042B09D17B6803
:1024740093F83F30DBB2012B14BF01230023DBB2FE
:1024840015E03B68082B09D17B6893F84030DBB238
:10249400012B14BF01230023DBB208E07B6893F80F
:1024A4004130DBB2012B14BF01230023DBB2002B2C
:1024B40001D0012372E03B68002B04D17B68022227
:1024C40083F83E2013E03B68042B04D17B6802228E
:1024D40083F83F200BE03B68082B04D17B68022281
:1024E40083F8402003E07B68022283F841207B6864
:1024F4001B6801223968184600F0D0FD7B681B6810
:10250400284A934204D07B681B68274A934201D12E
:10251400012300E00023002B07D07B681B685A6C62
:102524007B681B6842F400425A647B681B681D4A3E
:10253400934218D07B681B681B4A934213D07B6874
:102544001B68B3F1804F0ED07B681B68174A934217
:1025540009D07B681B68164A934204D07B681B68C9
:10256400144A934211D17B681B689B6803F00703EC
:10257400FB60FB68062B10D07B681B681A687B68BD
:102584001B6842F001021A6007E07B681B681A6846
:102594007B681B6842F001021A600023184610375A
:1025A400BD4680BD002C01400034014000040040C1
:1025B40000080040000C004080B582B000AF786095
:1025C4007B681B681B6903F00203022B22D17B6822
:1025D4001B68DB6803F00203022B1BD17B681B68BA
:1025E4006FF002021A617B6801221A777B681B680C
:1025F4009B6903F00303002B03D0786800F076FA9C
:1026040005E0786800F069FA786800F078FA7B6889
:1026140000221A777B681B681B6903F00403042BF0
:1026240022D17B681B68DB6803F00403042B1BD1F5
:102634007B681B686FF004021A617B6802221A77B8
:102644007B681B689B6903F44073002B03D0786894
:1026540000F04CFA05E0786800F03FFA786800F082
:102664004EFA7B6800221A777B681B681B6903F0AB
:102674000803082B22D17B681B68DB6803F008037E
:10268400082B1BD17B681B686FF008021A617B68FA
:1026940004221A777B681B68DB6903F00303002BB1
:1026A40003D0786800F022FA05E0786800F015FAA3
:1026B400786800F024FA7B6800221A777B681B682C
:1026C4001B6903F01003102B22D17B681B68DB68A5
:1026D40003F01003102B1BD17B681B686FF01002F2
:1026E4001A617B6808221A777B681B68DB6903F42C
:1026F4004073002B03D0786800F0F8F905E078689F
:1027040000F0EBF9786800F0FAF97B6800221A7798
:102714007B681B681B6903F00103012B0ED17B68E6
:102724001B68DB6803F00103012B07D17B681B687E
:102734006FF001021A617868FDF788FD7B681B68F9
:102744001B6903F08003802B0ED17B681B68DB6858
:1027540003F08003802B07D17B681B686FF0800235
:102764001A61786800F033FD7B681B681B6903F00D
:102774004003402B0ED17B681B68DB6803F04003E9
:10278400402B07D17B681B686FF040021A617868A0
:1027940000F0BEF97B681B681B6903F02003202B43
:1027A4000ED17B681B68DB6803F02003202B07D164
:1027B4007B681B686FF020021A61786800F0FEFCE9
:1027C40000BF0837BD4680BD80B586B000AFF86055
:1027D400B9607A600023FB75FB6893F83C30012BE9
:1027E40001D10223AEE0FB68012283F83C207B6820
:1027F4000C2B00F29F8001A252F823F03528000828
:1028040039290008392900083929000875280008E1
:10281400392900083929000839290008B72800088F
:10282400392900083929000839290008F72800083F
:10283400FB681B68B968184600F0EEF9FB681B6872
:102844009A69FB681B6842F008029A61FB681B687E
:102854009A69FB681B6822F004029A61FB681B6892
:102864009969BB681A69FB681B680A439A6164E04A
:10287400FB681B68B968184600F03EFAFB681B68E1
:102884009A69FB681B6842F400629A61FB681B68E2
:102894009A69FB681B6822F480629A61FB681B6872
:1028A4009969BB681B691A02FB681B680A439A6131
:1028B40043E0FB681B68B968184600F091FAFB68AE
:1028C4001B68DA69FB681B6842F00802DA61FB687E
:1028D4001B68DA69FB681B6822F00402DA61FB6892
:1028E4001B68D969BB681A69FB681B680A43DA610B
:1028F40023E0FB681B68B968184600F0E5FAFB683A
:102904001B68DA69FB681B6842F40062DA61FB68E1
:102914001B68DA69FB681B6822F48062DA61FB6871
:102924001B68D969BB681B691A02FB681B680A43E8
:10293400DA6102E00123FB7500BFFB68002283F823
:102944003C20FB7D18461837BD4680BD80B584B059
:1029540000AF786039600023FB737B6893F83C30E8
:10296400012B01D10223B4E07B68012283F83C20CF
:102974007B68022283F83D207B681B689B68BB60F0
:10298400BB6823F07703BB60BB6823F47F43BB6061
:102994007B681B68BA689A603B681B68B3F5005F84
:1029A4003ED0B3F5005F00F28780B3F5805F00F09E
:1029B4008680B3F5805F7FD8702B1AD0702B7BD8BC
:1029C400602B50D0602B77D8502B3CD0502B73D831
:1029D400402B58D0402B6FD8302B64D0302B6BD881
:1029E400202B60D0202B67D8002B5CD0102B5AD022
:1029F40062E07B6818683B6899683B685A683B6882
:102A0400DB6800F02CFB7B681B689B68BB60BB68C1
:102A140043F07703BB607B681B68BA689A604FE039
:102A24007B6818683B6899683B685A683B68DB6850
:102A340000F015FB7B681B689A687B681B6842F48E
:102A440080429A603CE07B6818683B6859683B6840
:102A5400DB681A4600F08CFA7B681B685021184624
:102A640000F0E3FA2CE07B6818683B6859683B681F
:102A7400DB681A4600F0AAFA7B681B6860211846D6
:102A840000F0D3FA1CE07B6818683B6859683B681F
:102A9400DB681A4600F06CFA7B681B684021184614
:102AA40000F0C3FA0CE07B681A683B681B6819469F
:102AB400104600F0BAFA03E00123FB7300E000BF04
:102AC4007B68012283F83D207B68002283F83C2048
:102AD400FB7B18461037BD4680BD80B483B000AF81
:102AE400786000BF0C37BD4680BC704780B483B0AB
:102AF40000AF786000BF0C37BD4680BC704780B41F
:102B040083B000AF786000BF0C37BD4680BC70470F
:102B140080B483B000AF786000BF0C37BD4680BC82
:102B24007047000080B485B000AF786039607B687E
:102B34001B68FB607B68334A934213D07B68324A3C
:102B440093420FD07B68B3F1804F0BD07B682F4A40
:102B5400934207D07B682E4A934203D07B682D4A68
:102B6400934208D1FB6823F07003FB603B685B6809
:102B7400FA681343FB607B68224A934213D07B6854
:102B8400214A93420FD07B68B3F1804F0BD07B680E
:102B94001E4A934207D07B681D4A934203D07B6848
:102BA4001C4A934208D1FB6823F44073FB603B68E2
:102BB400DB68FA681343FB60FB6823F080023B6820
:102BC4005B691343FB607B68FA681A603B689A6828
:102BD4007B68DA623B681A687B689A627B68094A98
:102BE400934203D07B68084A934203D13B681A6935
:102BF4007B681A637B6801225A6100BF1437BD46A3
:102C040080BC7047002C01400034014000040040A7
:102C140000080040000C004080B487B000AF78602A
:102C240039607B681B6A7B617B681B6A23F0010245
:102C34007B681A627B685B683B617B689B69FB60AD
:102C4400FB6823F07003FB60FB6823F00303FB6065
:102C54003B681B68FA681343FB607B6923F002033B
:102C64007B613B689B687A6913437B617B68204A7C
:102C7400934203D07B681F4A93420CD17B6923F0B3
:102C840008037B613B68DB687A6913437B617B697A
:102C940023F004037B617B68154A934203D07B686D
:102CA400144A934211D13B6923F480733B613B691D
:102CB40023F400733B613B685B693A6913433B61EE
:102CC4003B689B693A6913433B617B683A695A6084
:102CD4007B68FA689A613B685A687B685A637B68C8
:102CE4007A691A6200BF1C37BD4680BC704700BFBA
:102CF400002C01400034014080B487B000AF7860FC
:102D040039607B681B6A7B617B681B6A23F0100255
:102D14007B681A627B685B683B617B689B69FB60CC
:102D2400FB6823F4E043FB60FB6823F44073FB601F
:102D34003B681B681B02FA681343FB607B6923F042
:102D440020037B613B689B681B017A6913437B61A9
:102D54007B68214A934203D07B68204A93420DD179
:102D64007B6923F080037B613B68DB681B017A6924
:102D740013437B617B6923F040037B617B68164AC4
:102D8400934203D07B68154A934213D13B6923F4E1
:102D940080633B613B6923F400633B613B685B698F
:102DA4009B003A6913433B613B689B699B003A690A
:102DB40013433B617B683A695A607B68FA689A619D
:102DC4003B685A687B689A637B687A691A6200BFB9
:102DD4001C37BD4680BC7047002C014000340140C4
:102DE40080B487B000AF786039607B681B6A7B6110
:102DF4007B681B6A23F480727B681A627B685B6859
:102E04003B617B68DB69FB60FB6823F07003FB605C
:102E1400FB6823F00303FB603B681B68FA681343F9
:102E2400FB607B6923F400737B613B689B681B0236
:102E34007A6913437B617B68214A934203D07B68A0
:102E4400204A93420DD17B6923F400637B613B6884
:102E5400DB681B027A6913437B617B6923F480631B
:102E64007B617B68164A934203D07B68154A934280
:102E740013D13B6923F480533B613B6923F4005332
:102E84003B613B685B691B013A6913433B613B68E7
:102E94009B691B013A6913433B617B683A695A6039
:102EA4007B68FA68DA613B685A687B68DA637B6836
:102EB4007A691A6200BF1C37BD4680BC704700BFE8
:102EC400002C01400034014080B487B000AF78602A
:102ED40039607B681B6A3B617B681B6A23F4805200
:102EE4007B681A627B685B687B617B68DB69FB607B
:102EF400FB6823F4E043FB60FB6823F44073FB604E
:102F04003B681B681B02FA681343FB603B6923F4AC
:102F140000533B613B689B681B033A6913433B6165
:102F24007B68114A934203D07B68104A934209D1CB
:102F34007B6923F480437B613B685B699B017A690D
:102F440013437B617B687A695A607B68FA68DA614B
:102F54003B685A687B681A647B683A691A6200BFE6
:102F64001C37BD4680BC7047002C01400034014032
:102F740080B487B000AFF860B9607A60FB681B6A00
:102F84007B61FB681B6A23F00102FB681A62FB6821
:102F94009B693B613B6923F0F0033B617B681B0148
:102FA4003A6913433B617B6923F00A037B617A69C5
:102FB400BB6813437B61FB683A699A61FB687A6971
:102FC4001A6200BF1C37BD4680BC704780B487B00E
:102FD40000AFF860B9607A60FB681B6A7B61FB68CC
:102FE4001B6A23F01002FB681A62FB689B693B6151
:102FF4003B6923F470433B617B681B033A691343C9
:103004003B617B6923F0A0037B61BB681B017A6988
:1030140013437B61FB683A699A61FB687A691A62B7
:1030240000BF1C37BD4680BC704780B485B000AF7C
:10303400786039607B689B68FB60FB6823F07003F1
:10304400FB603A68FB68134343F00703FB607B684B
:10305400FA689A6000BF1437BD4680BC704780B4DC
:1030640087B000AFF860B9607A603B60FB689B682A
:103074007B617B6923F47F437B613B681A027B6835
:103084001A43BB6813437A6913437B61FB687A690B
:103094009A6000BF1C37BD4680BC704780B487B0BF
:1030A40000AFF860B9607A60BB6803F01F030122C7
:1030B40002FA03F37B61FB681A6A7B69DB431A40FB
:1030C400FB681A62FB681A6ABB6803F01F0379681D
:1030D40001FA03F31A43FB681A6200BF1C37BD46AA
:1030E40080BC704780B485B000AF786039607B687D
:1030F40093F83C30012B01D1022350E07B6801227C
:1031040083F83C207B68022283F83D207B681B689F
:103114005B68FB607B681B689B68BB60FB6823F093
:103124007003FB603B681B68FA681343FB607B68B1
:103134001B68FA685A607B681B681B4A934218D064
:103144007B681B68194A934213D07B681B68B3F1F0
:10315400804F0ED07B681B68154A934209D07B6868
:103164001B68144A934204D07B681B68124A93423A
:103174000CD1BB6823F08003BB603B685B68BA6812
:103184001343BB607B681B68BA689A607B68012242
:1031940083F83D207B68002283F83C2000231846F6
:1031A4001437BD4680BC7047002C014000340140F8
:1031B4000004004000080040000C004080B483B0CC
:1031C40000AF786000BF0C37BD4680BC704780B448
:1031D40083B000AF786000BF0C37BD4680BC704739
:1031E40080B582B000AF78607B68002B01D10123E9
:1031F40042E07B6893F84130DBB2002B06D17B6858
:10320400002283F840207868FDF7FCFD7B682422C7
:1032140083F841207B681B68DA687B681B6822F4AA
:103224000052DA60786800F0C5FD7B681B681A6993
:103234007B681B6822F490421A617B681B685A6998
:103244007B681B6822F02A025A617B681B68DA6873
:103254007B681B6842F40052DA607B6800225A647F
:103264007B68202283F841207B68202283F8422057
:103274007B6800225A63002318460837BD4680BD88
:1032840080B58AB002AFF860B9603B601346FB803A
:1032940000237B61FB6893F84130DBB2202B6DD1B6
:1032A400BB68002B02D0FB88002B01D1012366E010
:1032B400FB6800225A64FB68212283F84120FDF751
:1032C4004FFF7861FB68FA889A84FB68FA88DA848D
:1032D400FB689B68B3F5805F08D1FB681B69002B12
:1032E40004D10023FB61BB68BB6103E0BB68FB61E5
:1032F4000023BB612AE03B6800937B6900228021A4
:10330400F86800F014FB0346002B01D0032336E0D9
:10331400FB69002B0BD1BB691B881A46FB681B6831
:10332400C2F308025A60BB690233BB6107E0FB6960
:103334001A78FB681B685A60FB690133FB61FB6800
:10334400DB8C9BB2013B9AB2FB68DA84FB68DB8CB2
:103354009BB2002BCFD13B6800937B6900224021B4
:10336400F86800F0E4FA0346002B01D0032306E0DA
:10337400FB68202283F84120002300E00223184642
:103384002037BD4680BD80B584B000AFF860B96019
:103394001346FB80FB6893F84230DBB2202B12D13A
:1033A400BB68002B02D0FB88002B01D101230BE06A
:1033B400FB6800221A63FB881A46B968F86800F0B3
:1033C40024FB034600E0022318461037BD4680BDA7
:1033D40080B5BAB000AF78607B681B681B68C7F81B
:1033E400E4307B681B68DB68C7F8E0307B681B68E7
:1033F4005B69C7F8DC300023C7F8D8300023C7F86E
:10340400D430D7F8E43003F00F03C7F8D830D7F836
:10341400D830002B0FD1D7F8E43003F02003002B71
:1034240009D0D7F8E03003F02003002B03D07868EC
:1034340000F001FC5BE2D7F8D830002B00F0DE800E
:10344400D7F8DC3003F00103002B06D1D7F8E030C5
:1034540003F49073002B00F0D180D7F8E43003F02C
:103464000103002B0BD0D7F8E03003F48073002B5A
:1034740005D07B685B6C43F001027B685A64D7F823
:10348400E43003F00403002B0BD0D7F8DC3003F056
:103494000103002B05D07B685B6C43F002027B6860
:1034A4005A64D7F8E43003F00203002B0BD0D7F8AA
:1034B400DC3003F00103002B05D07B685B6C43F028
:1034C40004027B685A64D7F8E43003F00803002B45
:1034D40011D0D7F8E03003F02003002B05D1D7F842
:1034E400DC3003F00103002B05D07B685B6C43F0F8
:1034F40008027B685A647B685B6C002B00F0F281E5
:10350400D7F8E43003F02003002B08D0D7F8E030DC
:1035140003F02003002B02D0786800F08CFB7B685A
:103524001B685B6903F04003002B14BF01230023D5
:10353400DBB2C7F8D4307B685B6C03F00803002B64
:1035440003D1D7F8D430002B4FD0786800F096FA26
:103554007B681B685B6903F04003002B41D07B68E8
:103564001B681433C7F89C30D7F89C3053E8003FED
:10357400C7F89830D7F8983023F04003C7F8D03014
:103584007B681B681433D7F8D020C7F8A820C7F885
:10359400A430D7F8A410D7F8A82041E80023C7F82E
:1035A400A030D7F8A030002BD9D17B68DB6B002B7F
:1035B40013D07B68DB6B7E4A5A637B68DB6B1846EF
:1035C400FDF744FF0346002B16D07B68DB6B5B6B77
:1035D4007A68D26B104698470EE0786800F093F949
:1035E4000AE0786800F08FF906E0786800F08BF95B
:1035F4007B6800225A6475E100BF73E17B681B6B32
:10360400012B40F04F81D7F8E43003F01003002B76
:1036140000F04881D7F8E03003F01003002B00F0ED
:1036240041810023BB607B681B681B68BB607B68AF
:103634001B685B68BB60BB687B681B685B6903F0E5
:103644004003002B00F0B6807B68DB6B1B685B6873
:10365400A7F8BE30B7F8BE30002B00F045817B6878
:103664009B8DB7F8BE209A4280F03E817B68B7F804
:10367400BE20DA857B68DB6B9B69202B00F0888099
:103684007B681B680C33C7F88830D7F8883053E858
:10369400003FC7F88430D7F8843023F48073C7F828
:1036A400B8307B681B680C33D7F8B820C7F894206F
:1036B400C7F89030D7F89010D7F8942041E8002349
:1036C400C7F88C30D7F88C30002BD9D17B681B68B5
:1036D40014337B677B6F53E8003F3B673B6F23F0FA
:1036E4000103C7F8B4307B681B681433D7F8B420DF
:1036F400C7F88020FB67F96FD7F8802041E80023E2
:10370400BB67BB6F002BE1D17B681B6814333B663E
:103714003B6E53E8003FFB65FB6D23F04003C7F8A5
:10372400B0307B681B681433D7F8B020FA66BB66E8
:10373400B96EFA6E41E800237B667B6E002BE3D101
:103744007B68202283F842207B6800221A637B680E
:103754001B680C33FB64FB6C53E8003FBB64BB6C1D
:1037640023F01003C7F8AC307B681B680C33D7F820
:10377400AC20BA657B65796DBA6D41E800233B6581
:103784003B6D002BE3D17B68DB6B1846FDF723FE12
:103794007B6802225A637B689A8D7B68DB8D9BB2BF
:1037A400D31A9BB21946786800F0B6F89CE000BFC3
:1037B400453B00087B689A8D7B68DB8D9BB2D31AEE
:1037C400A7F8CE307B68DB8D9BB2002B00F08E8097
:1037D400B7F8CE30002B00F089807B681B680C336F
:1037E400BB63BB6B53E8003F7B637B6B23F4907339
:1037F400C7F8C8307B681B680C33D7F8C8207A64D4
:103804003B64396C7A6C41E80023FB63FB6B002B4F
:10381400E3D17B681B6814337B627B6A53E8003F07
:103824003B623B6A23F00103C7F8C4307B681B6822
:103834001433D7F8C4203A63FB62F96A3A6B41E85F
:103844000023BB62BB6A002BE3D17B68202283F890
:1038540042207B6800221A637B681B680C333B613F
:103864003B6953E8003FFB60FB6823F01003C7F893
:10387400C0307B681B680C33D7F8C020FA61BB6189
:10388400B969FA6941E800237B617B69002BE3D1C4
:103894007B6802225A63B7F8CE301946786800F084
:1038A4003BF823E0D7F8E43003F08003002B09D081
:1038B400D7F8E03003F08003002B03D0786800F0E1
:1038C40053F914E0D7F8E43003F04003002B0ED092
:1038D400D7F8E03003F04003002B08D0786800F0FC
:1038E40092F904E000BF02E000BF00E000BFE83747
:1038F400BD4680BD80B483B000AF786000BF0C3794
:10390400BD4680BC704780B483B000AF786000BF10
:103914000C37BD4680BC704780B483B000AF78607C
:103924000B467B8000BF0C37BD4680BC704780B51A
:1039340090B000AFF860B9603B601346FB7150E093
:10394400BB6CB3F1FF3F4CD0BB6C002B07D0FDF731
:1039540007FC02463B68D31ABA6C9A4241D2FB6810
:103964001B680C33BB62BB6A53E8003F7B627B6A13
:1039740023F4D073FB63FB681B680C33FA6B7A6324
:103984003B63396B7A6B41E80023FB62FB6A002BD3
:10399400E5D1FB681B6814337B617B6953E8003F06
:1039A4003B613B6923F00103BB63FB681B68143371
:1039B400BA6B3A62FB61F9693A6A41E80023BB6178
:1039C400BB69002BE5D1FB68202283F84120FB680A
:1039D400202283F84220FB68002283F8402003233E
:1039E4000FE0FB681B681A68BB681340BA689A4208
:1039F4000CBF01230023DBB21A46FB799A429FD005
:103A0400002318464037BD4680BD80B485B000AF62
:103A1400F860B9601346FB80FB68BA689A62FB6879
:103A2400FA889A85FB68FA88DA85FB6800225A646A
:103A3400FB68222283F84220FB681B69002B07D015
:103A4400FB681B68DA68FB681B6842F48072DA6002
:103A5400FB681B685A69FB681B6842F001025A61E3
:103A6400FB681B68DA68FB681B6842F02002DA60B6
:103A7400002318461437BD4680BC704780B495B007
:103A840000AF78607B681B680C337B637B6B53E807
:103A9400003F3B633B6B23F49073FB647B681B68C0
:103AA4000C33FA6C3A64FB63F96B3A6C41E800231B
:103AB400BB63BB6B002BE5D17B681B6814333B6293
:103AC4003B6A53E8003FFB61FB6923F00103BB64DD
:103AD4007B681B681433BA6CFA62BB62B96AFA6A0F
:103AE40041E800237B627B6A002BE5D17B681B6B7A
:103AF400012B19D17B681B680C33FB60FB6853E80E
:103B0400003FBB60BB6823F010037B647B681B68C9
:103B14000C337A6CBA617B617969BA6941E8002334
:103B24003B613B69002BE5D17B68202283F842206E
:103B34007B6800221A6300BF5437BD4680BC7047BF
:103B440080B584B000AF78607B685B6AFB60FB681B
:103B54000022DA85FB680022DA84F868FFF7D3FED6
:103B640000BF1037BD4680BD80B485B000AF78601B
:103B74007B6893F84130DBB2212B3ED17B689B6894
:103B8400B3F5805F14D17B681B69002B10D17B686F
:103B94001B6AFB60FB681B881A467B681B68C2F3C0
:103BA40008025A607B681B6A9A1C7B681A6208E0E8
:103BB4007B681B6A591C7A6811621A787B681B68D7
:103BC4005A607B68DB8C9BB2013B9BB27A681946D6
:103BD400D184002B0FD17B681B68DA687B681B6873
:103BE40022F08002DA607B681B68DA687B681B68F5
:103BF40042F04002DA60002300E002231846143742
:103C0400BD4680BC704780B582B000AF78607B68E9
:103C14001B68DA687B681B6822F04002DA607B6804
:103C2400202283F841207868FFF764FE00231846B9
:103C34000837BD4680BD80B58CB000AF78607B6826
:103C440093F84230DBB2222B40F0AE807B689B6855
:103C5400B3F5805F17D17B681B69002B13D1002358
:103C6400FB627B689B6ABB627B681B685B689BB278
:103C7400C3F308039AB2BB6A1A807B689B6A9A1CD6
:103C84007B689A6226E07B689B6AFB620023BB62C6
:103C94007B689B68B3F5805F07D07B689B68002BCB
:103CA4000AD17B681B69002B06D17B681B685B68A3
:103CB400DAB2FB6A1A7008E07B681B685B68DBB2E7
:103CC40003F07F03DAB2FB6A1A707B689B6A5A1CA2
:103CD4007B689A627B68DB8D9BB2013B9BB27A68FE
:103CE4001946D185002B5DD17B681B68DA687B6837
:103CF4001B6822F02002DA607B681B68DA687B6844
:103D04001B6822F48072DA607B681B685A697B68DE
:103D14001B6822F001025A617B68202283F842204A
:103D24007B6800225A637B681B6B012B35D17B684F
:103D340000221A637B681B680C337B617B6953E840
:103D4400003F3B613B6923F010037B627B681B6887
:103D54000C337A6A3A62FB61F9693A6A41E80023F2
:103D6400BB61BB69002BE5D17B681B681B6803F052
:103D74001003102B0AD10023FB607B681B681B68AF
:103D8400FB607B681B685B68FB60FB687B689B8DE2
:103D940019467868FFF7C0FD02E07868FCF7F2FB8B
:103DA400002302E0002300E0022318463037BD461A
:103DB40080BD000080B584B000AF78607B681B686C
:103DC4001B6923F440517B68DA687B681B680A43EB
:103DD4001A617B689A687B681B691A437B685B6914
:103DE4001343BB607B681B68DB6823F4B05323F088
:103DF4000C037A681268B9680B43D3607B681B684C
:103E04005B6923F440717B689A697B681B680A4389
:103E14005A617B681B682C4A934203D1FEF7D8F998
:103E2400F86002E0FEF7C0F9F860FA6813469B00F8
:103E340013449A001A447B685B689B00B2FBF3F35B
:103E4400224AA2FB03235B091901FA6813469B006B
:103E540013449A001A447B685B689B00B2FBF3F23C
:103E64001A4BA3FB02035B09642000FB03F3D31A80
:103E74001B013233154AA2FB03235B0903F0F00351
:103E84001944FA6813469B0013449A001A447B6849
:103E94005B689B00B2FBF3F20C4BA3FB02035B09D0
:103EA400642000FB03F3D31A1B013233074AA2FB3D
:103EB40003235B0903F00F027B681B680A449A60C2
:103EC40000BF1037BD4680BD003801401F85EB514F
:103ED400002310B50446C0E90033C0E9043383600D
:103EE40081814366C2818361194608225C3000F0F7
:103EF400F9F90D4B246263620C4BA3620C4BE36231
:103F04000C4B23630C4B9C4206D003F16802944291
:103F140002D0D0339C4205D104F15800BDE81040D2
:103F240000F06ABA10BD00BF394100085B410008C7
:103F340093410008B741000874030020024A034972
:103F4400034800F069B800BF50000020954C0008F9
:103F54006000002041680C4B10B59942044601D022
:103F640000F096FEA168094B994202D0204600F069
:103F74008FFEE168064B994204D02046BDE810400C
:103F840000F086BE10BD00BF74030020DC030020D7
:103F94004404002010B50B4B0B4C0C4A20461A600D
:103FA40004210022FFF794FF04F168000122092193
:103FB400FFF78EFF04F1D0000222BDE81040122169
:103FC400FFF786BFAC04002074030020413F0008C3
:103FD400014800F012BA00BFB5040020014800F007
:103FE4000DBA00BFB504002010B50446FFF7F0FF7A
:103FF400236A1BB1BDE81040FFF7F0BF044B2362F6
:10400400044B1B68002BF5D1FFF7C4FFF2E700BF98
:10401400593F0008AC0400202DE9F84307468846C0
:1040240014460026D4E90195B9F1010905D524689F
:10403400002CF7D13046BDE8F883AB89012B07D9B2
:10404400B5F90E30013303D029463846C04706433C
:104054006835E9E70FB407B5064904AB086853F8B7
:10406400042B8168019300F0E9FA03B05DF804EBD6
:1040740004B070475C000020036A70B505460E4624
:1040840084680BB9FFF7B0FF636EDB0705D4A3891F
:10409400980502D4A06D00F0B0F9A389190702D5E0
:1040A4002369002B35D12146284600F0C5F880B39A
:1040B4004FF0FF35636EDA0705D4A3899B0502D45C
:1040C400A06D00F09BF9284670BD002B04DAA269AC
:1040D4009A4217DC0A2915D023685A1C22601970E9
:1040E400A36816F8011F013BA3600029EDD1002B42
:1040F40011DA22460A21284600F05FF80130D7D0B1
:104104000A25D7E72246284600F057F80130E7D1C0
:10411400CEE7013EE4E723685A1C22600A221A70A3
:10412400EEE70000024B01461868FFF7A5BF00BF89
:104134005C00002010B50C46B1F90E1000F00EF929
:104144000028ABBF636DA3891B1823F48053ACBF55
:104154006365A38110BD2DE9F0411F468B89054697
:10416400DB050C46164605D502230022B1F90E10D4
:1041740000F0E2F8A389324623F48053A381284651
:104184003B46B4F90E10BDE8F04100F0F9B810B5A3
:104194000C46B1F90E1000F0CFF8431CA38915BFEB
:1041A400606523F4805343F48053A38118BFA38133
:1041B40010BDB1F90E1000F0AFB8F8B50E461446B4
:1041C400054618B1036A0BB9FFF70EFFA369A36094
:1041D400A3891A0701D5236943B92146284600F06B
:1041E4002BF818B14FF0FF373846F8BD2368226921
:1041F400F6B2981A63693746834205DC214628469D
:1042040000F046FD0028EDD1A368013BA3602368BC
:104214005A1C22601E706269431C9A4204D0A3890E
:10422400DB07E1D50A2EDFD12146284600F030FD18
:104234000028D9D0D6E7000038B5294B05461868C0
:104244000C4618B1036A0BB9FFF7CEFEB4F90C3073
:10425400190722D4DA0607D409222A6043F040035E
:104264004FF0FF30A38133E0580712D5616B41B1A1
:1042740004F14403994202D0284600F0C1F8002317
:104284006363A38923F02403A38100236360236968
:104294002360A38943F00803A38123694BB9A3894D
:1042A40003F42073B3F5007F03D02146284600F0C1
:1042B4003CFDB4F90C3013F001020AD00022A260D4
:1042C40062695242A261226942B913F08000C5D1E9
:1042D40038BD990758BF6269A260F4E70020F7E788
:1042E4005C00002003460244934200D1704703F867
:1042F400011BF9E710B56AB10139841810F8012BD4
:1043040011F8013F9A4203D1A04201D0002AF5D10D
:10431400D01A10BD1046FCE738B50023054D0446FD
:1043240008462B60FCF731FE431C02D12B6803B115
:10433400236038BDB004002038B504460846114651
:104344000022054D2A601A46FCF743FE431C02D1A5
:104354002B6803B1236038BDB004002038B504468F
:10436400084611460022054D2A601A46FCF7F0FD66
:10437400431C02D12B6803B1236038BDB004002074
:1043840038B50446084611460022054D2A601A46EF
:10439400FBF746FF431C02D12B6803B1236038BDF1
:1043A400B0040020014B1868704700BF5C00002077
:1043B40070B500260C4D0D4C641BA410A64209D107
:1043C40000F030FD00260A4D0A4C641BA410A642DE
:1043D40005D170BD55F8043B98470136EEE755F812
:1043E400043B98470136F2E7984F0008984F0008BD
:1043F400984F00089C4F00087047704770470000B2
:1044040038B50546002940D051F8043C0C1F002B58
:10441400B8BFE41800F0DEF81C4A136833B96360CF
:1044240014602846BDE8384000F0DAB8A34208D941
:10443400206821188B4201BF19685B680918216044
:10444400EDE71A465B680BB1A342FAD9116850181C
:10445400A0420BD120680144501883421160E0D17E
:1044640018685B68084410605360DAE702D90C23CB
:104474002B60D6E7206821188B4201BF19685B685E
:104484000918216063605460CBE738BDBC04002088
:1044940070B50F4E0C463168054611B900F0A4FC06
:1044A40030602146284600F09FFC431C03D14FF0A6
:1044B400FF34204670BDC41C24F00304A042F8D08D
:1044C400211A284600F090FC0130F2D1EFE700BF3A
:1044D400B80400202DE9F843CD1C25F00305083568
:1044E4000C2D38BF0C25002D064601DBA94204D94A
:1044F4000C2333600020BDE8F883DFF8D48000F09B
:1045040069F8D8F800301C4644BB29463046FFF70A
:10451400BFFF431C044658D1D8F800402746002F5B
:1045240043D1002C4BD023683946304604EB0309B1
:1045340000F05AFC814542D1216830466D1A294663
:10454400FFF7A6FF01303AD023682B442360D8F844
:1045540000305A6862BBC8F800700FE02268521B32
:1045640020D40B2A17D96119A342256018BF5960BA
:10457400636808BFC8F8001062514B60304600F011
:104584002FF804F10B00231D20F00700C21A1CBFF2
:104594001B1AA350AFE76268A3420CBFC8F80020FF
:1045A4005A60EBE723466468AEE73C467F68B6E7AB
:1045B4001A465B68A342FBD100235360DEE70C2359
:1045C4003046336000F00CF894E70560D6E700BF8E
:1045D400BC0400200148FFF710BF00BFB404002052
:1045E4000148FFF70BBF00BFB4040020936810B468
:1045F400013B002B936007DA9469A34201DB0A298B
:1046040002D110BCFFF7D9BD1368581C1060197093
:10461400084610BC7047F8B506460F461446D51830
:10462400AC4201D1002007E03A46304614F8011BA1
:10463400FFF7DCFF431CF3D1F8BD00002DE9F04F78
:104644000D461446984606469DB018B1036A0BB948
:10465400FFF7CAFC6B6ED90705D4AB899A0502D45F
:10466400A86DFFF7CAFEAB891B0701D52B699BB95F
:1046740029463046FFF7E0FD70B16B6EDC0704D5C8
:104684004FF0FF301DB0BDE8F08FAB899805F7D42B
:10469400A86DFFF7B3FEF3E70023099320238DF8F9
:1046A400293030234FF00109CDF80C80DFF8A881C0
:1046B4008DF82A3023469A4613F8012B0AB1252A8D
:1046C400F9D1BAEB040B0BD05B462246294630469F
:1046D400FFF7A1FF013000F0A780099A5A4409921C
:1046E4009AF80030002B00F09F8000234FF0FF3237
:1046F400CDE905230AF1010A049307938DF8533099
:104704001A935446052214F8011B534800F07CFB0D
:10471400049AD8B9D10644BF20238DF85330130727
:1047240044BF2B238DF853309AF800302A2B15D030
:10473400544600204FF00A0C079A214611F8013B19
:10474400303B092B4BD9B0B1079214E0A0EB08031E
:1047540009FA03F31343A2460493D2E7039B191DFA
:104764001B680391002BBBBF5B4242F0020207931C
:104774000793B8BF049223782E2B0AD163782A2B8F
:1047840032D1039B02341A1D1B68039243EAE3737C
:104794000593DFF8C8A003225046217800F034FBCB
:1047A40038B14022049BA0EB0A0082401343013439
:1047B400049314F8011B062229488DF8281000F0F0
:1047C40023FB00283FD0274B1BBB039B073323F05D
:1047D400070308330393099B3B4409936AE70C4698
:1047E40001200CFB0232A8E700234FF00A0C194603
:1047F40001340593204610F8012B303A092A03D9D5
:10480400002BC6D00591C4E7044601230CFB01210B
:10481400F0E703AB00932A463046134B04A9AFF3E9
:1048240000800746781CD6D16B6ED90705D4AB89B6
:104834009A0502D4A86DFFF7E1FDAB895B063FF54D
:104844001FAF09981EE703AB00932A463046064B78
:1048540004A900F07DF8E4E7624F0008684F0008FF
:104864006C4F0008000000001B4600082DE9F047CB
:10487400164698468A680B6907469342B8BF1346A2
:10488400336091F843200C46DDF820900AB10133DF
:1048940033602368990642BF336802333360256866
:1048A40015F0060506D104F1190AE36832689B1A6B
:1048B400AB422BDC94F843302268003B18BF012341
:1048C400920630D44146384604F14302C8470130C9
:1048D40023D02368226903F00603042B14BF0025A8
:1048E40033684FF0000608BFE56804F11A0408BFF6
:1048F400ED1A54F8123C08BF25EAE5759342C4BF8B
:104904009B1AED18B5421AD1002008E00123524643
:1049140041463846C847013003D14FF0FF30BDE867
:10492400F0870135C1E73020E11881F843005A1CB3
:1049340094F845102244023382F84310C2E701235D
:10494400224641463846C8470130E6D00136D9E709
:104954002DE9FF470F7E9146782F80460C469A46F4
:104964000C9E01F1430207D8622F0AD8002F00F0F1
:10497400D380582F00F0BA8004F1420684F84270C4
:104984003AE0A7F16303152BF6D801A151F823F0FF
:10499400ED490008014A00087D4900087D490008E6
:1049A4007D4900087D490008014A00087D49000846
:1049B4007D4900087D4900087D490008034B000833
:1049C4002B4A0008BD4A00087D4900087D490008BB
:1049D400254B00087D4900082B4A00087D49000842
:1049E4007D490008C54A000833681A1D1B683260F7
:1049F40004F1420684F8423001239EE033682068C3
:104A0400191D3160060601D51D6803E04506FBD576
:104A1400B3F90050002D03DA2D236D4284F843309E
:104A24000A23594811E021683368080653F8045BE7
:104A340002D4490648BFADB26F2F336014BF0A23B6
:104A440008235148002184F843106668002EA8BF4B
:104A54002168A660A4BF21F0040121600DB9002ED5
:104A64004BD01646B5FBF3F103FB1157C75D06F8AF
:104A7400017D2F46BB420D46F4D9082B0BD1236888
:104A8400DF0708D5236961689942DEBF302306F841
:104A9400013C06F1FF36921B22614B4621464046FB
:104AA400CDF800A003AAFFF7E1FE01304AD14FF090
:104AB400FF3004B0BDE8F087236843F0200323608F
:104AC4007827324884F84570236831681F0651F806
:104AD400045B02D45F0648BFADB23160D90744BF5E
:104AE40043F0200323601DB11023ABE72648E9E718
:104AF400236823F020032360F6E71646BDE73368F6
:104B04002568181D616930602E061B6801D519607F
:104B140002E06806FBD51980002316462361BCE732
:104B2400336800211A1D32601E686268304600F046
:104B34006BF908B1801B606063682361002384F80B
:104B44004330AAE73246494640462369D0470130FC
:104B5400ADD023689B0713D4E068039B9842B8BF89
:104B64001846A6E70123324649464046D04701305D
:104B74009DD00135E36803995B1AAB42F2DCEBE7A5
:104B8400002504F11906F5E7734F0008844F000867
:104B9400B1F90C20F8B5160705460C4654D44B68F9
:104BA400002B02DC0B6C002B48DDE66A002E45D09E
:104BB400002312F480522F68216A2B6030D0626D7A
:104BC400A389590705D56368D21A636B0BB1236CAB
:104BD400D21A00232846E66A216AB047431CA389F7
:104BE40006D129681D292BD8284A0A41D60727D47B
:104BF400002262602269D904226004D5421C01D1DA
:104C04002B6803B96065616B2F60B9B104F144038B
:104C1400994202D02846FFF7F3FB002363630DE0BB
:104C240001232846B0470246501CC9D12B68002BEB
:104C3400C6D01D2B01D0162B1DD12F60002021E0E2
:104C440043F040031BB21AE00F69002FF6D093071C
:104C540018BF00230E6808BF4B69F61B0F608B60FA
:104C6400002EEBDD33463A462846216AD4F828C0A4
:104C7400E047002807DCB4F90C3043F040034FF060
:104C8400FF30A381F8BD0744361AE9E7FEFFBFDF12
:104C940038B50B6905460C4613B90025284638BDBE
:104CA40018B1036A0BB9FFF79FF9B4F90C30002B64
:104CB400F3D0626ED00704D4990502D4A06DFFF737
:104CC4009CFB28462146FFF763FF636E0546DA071F
:104CD400E4D4A3899B05E1D4A06DFFF78FFBDDE746
:104CE40070B50C46B1F90E10154600291E4696B053
:104CF4000CDAA389002113F0800F14BF40234FF472
:104D04008063002031602B6016B070BD6A4600F0ED
:104D140049F80028EDDB019901F47041A1F5005335
:104D2400594259414FF48063EBE78B89F7B59D07EE
:104D340006460C4607D504F147032360236101238B
:104D4400636103B0F0BD6A4601ABFFF7C9FF009F82
:104D5400054639463046FFF7BDFB48B9B4F90C3077
:104D64009A05EED423F0030343F00203A381E2E7A0
:104D7400A389C4E9040743F08003A381019B206055
:104D84005BB13046B4F90E1000F01EF828B1A389C7
:104D940023F0030343F00103A381A3891D43A581E9
:104DA400CFE7000038B50023064D044608461146F7
:104DB4002B60FCF7F5F8431C02D12B6803B1236088
:104DC40038BD00BFB004002038B50023054D0446AB
:104DD40008462B60FCF7F3F8431C02D12B6803B19F
:104DE400236038BDB004002038B50023054D0446C7
:104DF40008462B60FCF7FAF8431C02D12B6803B178
:104E0400236038BDB0040020034610B5C9B2024483
:104E14009342184601D1002003E0047801338C4208
:104E2400F6D110BDF8B500BFF8BC08BC9E4670476B
:0C4E3400F8B500BFF8BC08BC9E467047F3
:104E400053746F7020636F6E7665796F722D2D00CD
:104E50004D6F766520706F736974696F6E203200D4
:104E60004D6F766520706F736974696F6E203300C3
:104E70004D6F766520706F736974696F6E203400B2
:104E8000537461727420636F6E7665796F722D0052
:104E900047726162206F626A6563742D2D2D2D004B
:104EA00044726F70206F626A656374207375636308
:104EB00065737366756C6C790000000047726162FF
:104EC000206F626A656374207375636365737366CC
:104ED000756C6C7900000000526563656976652029
:104EE00025730A00526F626F7420646F696E673AAF
:104EF0002053746F7020636F6E7665796F72000057
:104F0000526F626F7420646F696E673A20477261F6
:104F100062206F626A65637400000000526F626F06
:104F20007420646F696E673A2053746172742063F1
:104F30006F6E7665796F720000000000000000005F
:104F4000010203040607080900000000010203042F
:104F500002030405060708090A0B0C0D0E0F1010BA
:104F60000102232D302B2000686C4C0065666745DC
:104F700046470030313233343536373839414243D1
:104F80004445460030313233343536373839616282
:084F9000636465660000000087
:044F98000902000802
:044F9C00E501000823
:104FA000404E0008504E0008604E0008804E000839
:104FB000904E00080100000046050000D0070000E8
:104FC0002E090000B004000030020000C4090000F7
:104FD000A406000028000000460000004C04000069
:104FE0001E0000000024F40010000000010000007A
:104FF0000000000003000000740300206000002097
:105000000000000074030020DC03002044040020A2
:105010000000000000000000000000000000000090
:105020000000000000000000000000000000000080
:105030000000000000000000000000000000000070
:0C50400000000000000000000000000064
:040000050800106976
:00000001FF
